{
  "_format": "hh-sol-artifact-1",
  "contractName": "GlofiToken",
  "sourceName": "contracts/GlofiToken.sol",
  "abi": [
    {
      "inputs": [
        {
          "internalType": "address",
          "name": "initialOwner",
          "type": "address"
        }
      ],
      "stateMutability": "nonpayable",
      "type": "constructor"
    },
    {
      "inputs": [
        {
          "internalType": "address",
          "name": "spender",
          "type": "address"
        },
        {
          "internalType": "uint256",
          "name": "allowance",
          "type": "uint256"
        },
        {
          "internalType": "uint256",
          "name": "needed",
          "type": "uint256"
        }
      ],
      "name": "ERC20InsufficientAllowance",
      "type": "error"
    },
    {
      "inputs": [
        {
          "internalType": "address",
          "name": "sender",
          "type": "address"
        },
        {
          "internalType": "uint256",
          "name": "balance",
          "type": "uint256"
        },
        {
          "internalType": "uint256",
          "name": "needed",
          "type": "uint256"
        }
      ],
      "name": "ERC20InsufficientBalance",
      "type": "error"
    },
    {
      "inputs": [
        {
          "internalType": "address",
          "name": "approver",
          "type": "address"
        }
      ],
      "name": "ERC20InvalidApprover",
      "type": "error"
    },
    {
      "inputs": [
        {
          "internalType": "address",
          "name": "receiver",
          "type": "address"
        }
      ],
      "name": "ERC20InvalidReceiver",
      "type": "error"
    },
    {
      "inputs": [
        {
          "internalType": "address",
          "name": "sender",
          "type": "address"
        }
      ],
      "name": "ERC20InvalidSender",
      "type": "error"
    },
    {
      "inputs": [
        {
          "internalType": "address",
          "name": "spender",
          "type": "address"
        }
      ],
      "name": "ERC20InvalidSpender",
      "type": "error"
    },
    {
      "inputs": [
        {
          "internalType": "address",
          "name": "owner",
          "type": "address"
        }
      ],
      "name": "OwnableInvalidOwner",
      "type": "error"
    },
    {
      "inputs": [
        {
          "internalType": "address",
          "name": "account",
          "type": "address"
        }
      ],
      "name": "OwnableUnauthorizedAccount",
      "type": "error"
    },
    {
      "anonymous": false,
      "inputs": [
        {
          "indexed": true,
          "internalType": "address",
          "name": "owner",
          "type": "address"
        },
        {
          "indexed": true,
          "internalType": "address",
          "name": "spender",
          "type": "address"
        },
        {
          "indexed": false,
          "internalType": "uint256",
          "name": "value",
          "type": "uint256"
        }
      ],
      "name": "Approval",
      "type": "event"
    },
    {
      "anonymous": false,
      "inputs": [
        {
          "indexed": true,
          "internalType": "address",
          "name": "poolAddress",
          "type": "address"
        }
      ],
      "name": "LiquidityPoolSet",
      "type": "event"
    },
    {
      "anonymous": false,
      "inputs": [
        {
          "indexed": true,
          "internalType": "address",
          "name": "previousOwner",
          "type": "address"
        },
        {
          "indexed": true,
          "internalType": "address",
          "name": "newOwner",
          "type": "address"
        }
      ],
      "name": "OwnershipTransferred",
      "type": "event"
    },
    {
      "anonymous": false,
      "inputs": [
        {
          "indexed": true,
          "internalType": "address",
          "name": "investor",
          "type": "address"
        },
        {
          "indexed": false,
          "internalType": "uint256",
          "name": "amount",
          "type": "uint256"
        }
      ],
      "name": "TokensBurned",
      "type": "event"
    },
    {
      "anonymous": false,
      "inputs": [
        {
          "indexed": true,
          "internalType": "address",
          "name": "investor",
          "type": "address"
        },
        {
          "indexed": false,
          "internalType": "uint256",
          "name": "amount",
          "type": "uint256"
        }
      ],
      "name": "TokensMinted",
      "type": "event"
    },
    {
      "anonymous": false,
      "inputs": [
        {
          "indexed": true,
          "internalType": "address",
          "name": "from",
          "type": "address"
        },
        {
          "indexed": true,
          "internalType": "address",
          "name": "to",
          "type": "address"
        },
        {
          "indexed": false,
          "internalType": "uint256",
          "name": "value",
          "type": "uint256"
        }
      ],
      "name": "Transfer",
      "type": "event"
    },
    {
      "inputs": [
        {
          "internalType": "address",
          "name": "owner",
          "type": "address"
        },
        {
          "internalType": "address",
          "name": "spender",
          "type": "address"
        }
      ],
      "name": "allowance",
      "outputs": [
        {
          "internalType": "uint256",
          "name": "",
          "type": "uint256"
        }
      ],
      "stateMutability": "view",
      "type": "function"
    },
    {
      "inputs": [
        {
          "internalType": "address",
          "name": "spender",
          "type": "address"
        },
        {
          "internalType": "uint256",
          "name": "value",
          "type": "uint256"
        }
      ],
      "name": "approve",
      "outputs": [
        {
          "internalType": "bool",
          "name": "",
          "type": "bool"
        }
      ],
      "stateMutability": "nonpayable",
      "type": "function"
    },
    {
      "inputs": [
        {
          "internalType": "address",
          "name": "account",
          "type": "address"
        }
      ],
      "name": "balanceOf",
      "outputs": [
        {
          "internalType": "uint256",
          "name": "",
          "type": "uint256"
        }
      ],
      "stateMutability": "view",
      "type": "function"
    },
    {
      "inputs": [
        {
          "internalType": "address",
          "name": "investor",
          "type": "address"
        },
        {
          "internalType": "uint256",
          "name": "amount",
          "type": "uint256"
        }
      ],
      "name": "burn",
      "outputs": [],
      "stateMutability": "nonpayable",
      "type": "function"
    },
    {
      "inputs": [],
      "name": "decimals",
      "outputs": [
        {
          "internalType": "uint8",
          "name": "",
          "type": "uint8"
        }
      ],
      "stateMutability": "view",
      "type": "function"
    },
    {
      "inputs": [
        {
          "internalType": "address",
          "name": "investor",
          "type": "address"
        }
      ],
      "name": "getBalance",
      "outputs": [
        {
          "internalType": "uint256",
          "name": "",
          "type": "uint256"
        }
      ],
      "stateMutability": "view",
      "type": "function"
    },
    {
      "inputs": [],
      "name": "getTotalSupply",
      "outputs": [
        {
          "internalType": "uint256",
          "name": "",
          "type": "uint256"
        }
      ],
      "stateMutability": "view",
      "type": "function"
    },
    {
      "inputs": [
        {
          "internalType": "address",
          "name": "investor",
          "type": "address"
        }
      ],
      "name": "getUsdcDeposited",
      "outputs": [
        {
          "internalType": "uint256",
          "name": "",
          "type": "uint256"
        }
      ],
      "stateMutability": "view",
      "type": "function"
    },
    {
      "inputs": [],
      "name": "liquidityPool",
      "outputs": [
        {
          "internalType": "address",
          "name": "",
          "type": "address"
        }
      ],
      "stateMutability": "view",
      "type": "function"
    },
    {
      "inputs": [
        {
          "internalType": "address",
          "name": "investor",
          "type": "address"
        },
        {
          "internalType": "uint256",
          "name": "amount",
          "type": "uint256"
        }
      ],
      "name": "mint",
      "outputs": [],
      "stateMutability": "nonpayable",
      "type": "function"
    },
    {
      "inputs": [],
      "name": "name",
      "outputs": [
        {
          "internalType": "string",
          "name": "",
          "type": "string"
        }
      ],
      "stateMutability": "view",
      "type": "function"
    },
    {
      "inputs": [],
      "name": "owner",
      "outputs": [
        {
          "internalType": "address",
          "name": "",
          "type": "address"
        }
      ],
      "stateMutability": "view",
      "type": "function"
    },
    {
      "inputs": [],
      "name": "renounceOwnership",
      "outputs": [],
      "stateMutability": "nonpayable",
      "type": "function"
    },
    {
      "inputs": [
        {
          "internalType": "address",
          "name": "_poolAddress",
          "type": "address"
        }
      ],
      "name": "setLiquidityPool",
      "outputs": [],
      "stateMutability": "nonpayable",
      "type": "function"
    },
    {
      "inputs": [],
      "name": "symbol",
      "outputs": [
        {
          "internalType": "string",
          "name": "",
          "type": "string"
        }
      ],
      "stateMutability": "view",
      "type": "function"
    },
    {
      "inputs": [],
      "name": "totalSupply",
      "outputs": [
        {
          "internalType": "uint256",
          "name": "",
          "type": "uint256"
        }
      ],
      "stateMutability": "view",
      "type": "function"
    },
    {
      "inputs": [
        {
          "internalType": "address",
          "name": "to",
          "type": "address"
        },
        {
          "internalType": "uint256",
          "name": "value",
          "type": "uint256"
        }
      ],
      "name": "transfer",
      "outputs": [
        {
          "internalType": "bool",
          "name": "",
          "type": "bool"
        }
      ],
      "stateMutability": "nonpayable",
      "type": "function"
    },
    {
      "inputs": [
        {
          "internalType": "address",
          "name": "from",
          "type": "address"
        },
        {
          "internalType": "address",
          "name": "to",
          "type": "address"
        },
        {
          "internalType": "uint256",
          "name": "value",
          "type": "uint256"
        }
      ],
      "name": "transferFrom",
      "outputs": [
        {
          "internalType": "bool",
          "name": "",
          "type": "bool"
        }
      ],
      "stateMutability": "nonpayable",
      "type": "function"
    },
    {
      "inputs": [
        {
          "internalType": "address",
          "name": "newOwner",
          "type": "address"
        }
      ],
      "name": "transferOwnership",
      "outputs": [],
      "stateMutability": "nonpayable",
      "type": "function"
    },
    {
      "inputs": [
        {
          "internalType": "address",
          "name": "",
          "type": "address"
        }
      ],
      "name": "usdcDeposited",
      "outputs": [
        {
          "internalType": "uint256",
          "name": "",
          "type": "uint256"
        }
      ],
      "stateMutability": "view",
      "type": "function"
    }
  ],
  "bytecode": "0x608060405234801561001057600080fd5b506040516126c03803806126c08339818101604052810190610032919061055f565b806040518060400160405280600b81526020017f476c6f666920546f6b656e0000000000000000000000000000000000000000008152506040518060400160405280600581526020017f474c4f464900000000000000000000000000000000000000000000000000000081525081600390816100ae91906107dc565b5080600490816100be91906107dc565b505050600073ffffffffffffffffffffffffffffffffffffffff168173ffffffffffffffffffffffffffffffffffffffff16036101335760006040517f1e4fbdf700000000000000000000000000000000000000000000000000000000815260040161012a91906108bd565b60405180910390fd5b6101428161018060201b60201c565b5061017a8161015561024660201b60201c565b600a6101619190610a47565b62e4e1c061016f9190610a92565b61024f60201b60201c565b50610b69565b6000600560009054906101000a900473ffffffffffffffffffffffffffffffffffffffff16905081600560006101000a81548173ffffffffffffffffffffffffffffffffffffffff021916908373ffffffffffffffffffffffffffffffffffffffff1602179055508173ffffffffffffffffffffffffffffffffffffffff168173ffffffffffffffffffffffffffffffffffffffff167f8be0079c531659141344cd1fd0a4f28419497f9722a3daafe3b4186f6b6457e060405160405180910390a35050565b60006012905090565b600073ffffffffffffffffffffffffffffffffffffffff168273ffffffffffffffffffffffffffffffffffffffff16036102c15760006040517fec442f050000000000000000000000000000000000000000000000000000000081526004016102b891906108bd565b60405180910390fd5b6102d3600083836102d760201b60201c565b5050565b600073ffffffffffffffffffffffffffffffffffffffff168373ffffffffffffffffffffffffffffffffffffffff160361032957806002600082825461031d9190610ad4565b925050819055506103fc565b60008060008573ffffffffffffffffffffffffffffffffffffffff1673ffffffffffffffffffffffffffffffffffffffff168152602001908152602001600020549050818110156103b5578381836040517fe450d38c0000000000000000000000000000000000000000000000000000000081526004016103ac93929190610b17565b60405180910390fd5b8181036000808673ffffffffffffffffffffffffffffffffffffffff1673ffffffffffffffffffffffffffffffffffffffff16815260200190815260200160002081905550505b600073ffffffffffffffffffffffffffffffffffffffff168273ffffffffffffffffffffffffffffffffffffffff16036104455780600260008282540392505081905550610492565b806000808473ffffffffffffffffffffffffffffffffffffffff1673ffffffffffffffffffffffffffffffffffffffff168152602001908152602001600020600082825401925050819055505b8173ffffffffffffffffffffffffffffffffffffffff168373ffffffffffffffffffffffffffffffffffffffff167fddf252ad1be2c89b69c2b068fc378daa952ba7f163c4a11628f55a4df523b3ef836040516104ef9190610b4e565b60405180910390a3505050565b600080fd5b600073ffffffffffffffffffffffffffffffffffffffff82169050919050565b600061052c82610501565b9050919050565b61053c81610521565b811461054757600080fd5b50565b60008151905061055981610533565b92915050565b600060208284031215610575576105746104fc565b5b60006105838482850161054a565b91505092915050565b600081519050919050565b7f4e487b7100000000000000000000000000000000000000000000000000000000600052604160045260246000fd5b7f4e487b7100000000000000000000000000000000000000000000000000000000600052602260045260246000fd5b6000600282049050600182168061060d57607f821691505b6020821081036106205761061f6105c6565b5b50919050565b60008190508160005260206000209050919050565b60006020601f8301049050919050565b600082821b905092915050565b6000600883026106887fffffffffffffffffffffffffffffffffffffffffffffffffffffffffffffffff8261064b565b610692868361064b565b95508019841693508086168417925050509392505050565b6000819050919050565b6000819050919050565b60006106d96106d46106cf846106aa565b6106b4565b6106aa565b9050919050565b6000819050919050565b6106f3836106be565b6107076106ff826106e0565b848454610658565b825550505050565b600090565b61071c61070f565b6107278184846106ea565b505050565b5b8181101561074b57610740600082610714565b60018101905061072d565b5050565b601f8211156107905761076181610626565b61076a8461063b565b81016020851015610779578190505b61078d6107858561063b565b83018261072c565b50505b505050565b600082821c905092915050565b60006107b360001984600802610795565b1980831691505092915050565b60006107cc83836107a2565b9150826002028217905092915050565b6107e58261058c565b67ffffffffffffffff8111156107fe576107fd610597565b5b61080882546105f5565b61081382828561074f565b600060209050601f8311600181146108465760008415610834578287015190505b61083e85826107c0565b8655506108a6565b601f19841661085486610626565b60005b8281101561087c57848901518255600182019150602085019450602081019050610857565b868310156108995784890151610895601f8916826107a2565b8355505b6001600288020188555050505b505050505050565b6108b781610521565b82525050565b60006020820190506108d260008301846108ae565b92915050565b7f4e487b7100000000000000000000000000000000000000000000000000000000600052601160045260246000fd5b60008160011c9050919050565b6000808291508390505b600185111561095e5780860481111561093a576109396108d8565b5b60018516156109495780820291505b808102905061095785610907565b945061091e565b94509492505050565b6000826109775760019050610a33565b816109855760009050610a33565b816001811461099b57600281146109a5576109d4565b6001915050610a33565b60ff8411156109b7576109b66108d8565b5b8360020a9150848211156109ce576109cd6108d8565b5b50610a33565b5060208310610133831016604e8410600b8410161715610a095782820a905083811115610a0457610a036108d8565b5b610a33565b610a168484846001610914565b92509050818404811115610a2d57610a2c6108d8565b5b81810290505b9392505050565b600060ff82169050919050565b6000610a52826106aa565b9150610a5d83610a3a565b9250610a8a7fffffffffffffffffffffffffffffffffffffffffffffffffffffffffffffffff8484610967565b905092915050565b6000610a9d826106aa565b9150610aa8836106aa565b9250828202610ab6816106aa565b91508282048414831517610acd57610acc6108d8565b5b5092915050565b6000610adf826106aa565b9150610aea836106aa565b9250828201905080821115610b0257610b016108d8565b5b92915050565b610b11816106aa565b82525050565b6000606082019050610b2c60008301866108ae565b610b396020830185610b08565b610b466040830184610b08565b949350505050565b6000602082019050610b636000830184610b08565b92915050565b611b4880610b786000396000f3fe608060405234801561001057600080fd5b506004361061012c5760003560e01c8063715018a6116100ad578063c4e41b2211610071578063c4e41b2214610333578063dd62ed3e14610351578063f2fde38b14610381578063f8b2cb4f1461039d578063fbc1e422146103cd5761012c565b8063715018a6146102a15780638da5cb5b146102ab57806395d89b41146102c95780639dc29fac146102e7578063a9059cbb146103035761012c565b806323b872dd116100f457806323b872dd146101e9578063313ce5671461021957806340c10f1914610237578063665a11ca1461025357806370a08231146102715761012c565b80630187702014610131578063033dd0a41461014d57806306fdde031461017d578063095ea7b31461019b57806318160ddd146101cb575b600080fd5b61014b600480360381019061014691906114f9565b6103fd565b005b610167600480360381019061016291906114f9565b6104fb565b604051610174919061153f565b60405180910390f35b610185610544565b60405161019291906115ea565b60405180910390f35b6101b560048036038101906101b09190611638565b6105d6565b6040516101c29190611693565b60405180910390f35b6101d36105f9565b6040516101e0919061153f565b60405180910390f35b61020360048036038101906101fe91906116ae565b610603565b6040516102109190611693565b60405180910390f35b610221610632565b60405161022e919061171d565b60405180910390f35b610251600480360381019061024c9190611638565b61063b565b005b61025b61082f565b6040516102689190611747565b60405180910390f35b61028b600480360381019061028691906114f9565b610855565b604051610298919061153f565b60405180910390f35b6102a961089d565b005b6102b36108b1565b6040516102c09190611747565b60405180910390f35b6102d16108db565b6040516102de91906115ea565b60405180910390f35b61030160048036038101906102fc9190611638565b61096d565b005b61031d60048036038101906103189190611638565b610b3d565b60405161032a9190611693565b60405180910390f35b61033b610b60565b604051610348919061153f565b60405180910390f35b61036b60048036038101906103669190611762565b610b6f565b604051610378919061153f565b60405180910390f35b61039b600480360381019061039691906114f9565b610bf6565b005b6103b760048036038101906103b291906114f9565b610c7c565b6040516103c4919061153f565b60405180910390f35b6103e760048036038101906103e291906114f9565b610c8e565b6040516103f4919061153f565b60405180910390f35b610405610ca6565b600073ffffffffffffffffffffffffffffffffffffffff168173ffffffffffffffffffffffffffffffffffffffff1603610474576040517f08c379a000000000000000000000000000000000000000000000000000000000815260040161046b906117ee565b60405180910390fd5b80600660006101000a81548173ffffffffffffffffffffffffffffffffffffffff021916908373ffffffffffffffffffffffffffffffffffffffff1602179055508073ffffffffffffffffffffffffffffffffffffffff167fe57f71636571365571c0eaeaeb54e1d9e0065804f056a57a2a29448524f7d18a60405160405180910390a250565b6000600760008373ffffffffffffffffffffffffffffffffffffffff1673ffffffffffffffffffffffffffffffffffffffff168152602001908152602001600020549050919050565b6060600380546105539061183d565b80601f016020809104026020016040519081016040528092919081815260200182805461057f9061183d565b80156105cc5780601f106105a1576101008083540402835291602001916105cc565b820191906000526020600020905b8154815290600101906020018083116105af57829003601f168201915b5050505050905090565b6000806105e1610d2d565b90506105ee818585610d35565b600191505092915050565b6000600254905090565b60008061060e610d2d565b905061061b858285610d47565b610626858585610ddc565b60019150509392505050565b60006012905090565b600660009054906101000a900473ffffffffffffffffffffffffffffffffffffffff1673ffffffffffffffffffffffffffffffffffffffff163373ffffffffffffffffffffffffffffffffffffffff16146106cb576040517f08c379a00000000000000000000000000000000000000000000000000000000081526004016106c2906118e0565b60405180910390fd5b600073ffffffffffffffffffffffffffffffffffffffff168273ffffffffffffffffffffffffffffffffffffffff160361073a576040517f08c379a00000000000000000000000000000000000000000000000000000000081526004016107319061194c565b60405180910390fd5b6000811161077d576040517f08c379a0000000000000000000000000000000000000000000000000000000008152600401610774906119b8565b60405180910390fd5b80600760008473ffffffffffffffffffffffffffffffffffffffff1673ffffffffffffffffffffffffffffffffffffffff16815260200190815260200160002060008282546107cc9190611a07565b925050819055506107dd8282610ed0565b8173ffffffffffffffffffffffffffffffffffffffff167f3f2c9d57c068687834f0de942a9babb9e5acab57d516d3480a3c16ee165a427382604051610823919061153f565b60405180910390a25050565b600660009054906101000a900473ffffffffffffffffffffffffffffffffffffffff1681565b60008060008373ffffffffffffffffffffffffffffffffffffffff1673ffffffffffffffffffffffffffffffffffffffff168152602001908152602001600020549050919050565b6108a5610ca6565b6108af6000610f52565b565b6000600560009054906101000a900473ffffffffffffffffffffffffffffffffffffffff16905090565b6060600480546108ea9061183d565b80601f01602080910402602001604051908101604052809291908181526020018280546109169061183d565b80156109635780601f1061093857610100808354040283529160200191610963565b820191906000526020600020905b81548152906001019060200180831161094657829003601f168201915b5050505050905090565b600660009054906101000a900473ffffffffffffffffffffffffffffffffffffffff1673ffffffffffffffffffffffffffffffffffffffff163373ffffffffffffffffffffffffffffffffffffffff16146109fd576040517f08c379a00000000000000000000000000000000000000000000000000000000081526004016109f4906118e0565b60405180910390fd5b60008111610a40576040517f08c379a0000000000000000000000000000000000000000000000000000000008152600401610a37906119b8565b60405180910390fd5b80610a4a83610855565b1015610a8b576040517f08c379a0000000000000000000000000000000000000000000000000000000008152600401610a8290611a87565b60405180910390fd5b80600760008473ffffffffffffffffffffffffffffffffffffffff1673ffffffffffffffffffffffffffffffffffffffff1681526020019081526020016000206000828254610ada9190611aa7565b92505081905550610aeb8282611018565b8173ffffffffffffffffffffffffffffffffffffffff167ffd38818f5291bf0bb3a2a48aadc06ba8757865d1dabd804585338aab3009dcb682604051610b31919061153f565b60405180910390a25050565b600080610b48610d2d565b9050610b55818585610ddc565b600191505092915050565b6000610b6a6105f9565b905090565b6000600160008473ffffffffffffffffffffffffffffffffffffffff1673ffffffffffffffffffffffffffffffffffffffff16815260200190815260200160002060008373ffffffffffffffffffffffffffffffffffffffff1673ffffffffffffffffffffffffffffffffffffffff16815260200190815260200160002054905092915050565b610bfe610ca6565b600073ffffffffffffffffffffffffffffffffffffffff168173ffffffffffffffffffffffffffffffffffffffff1603610c705760006040517f1e4fbdf7000000000000000000000000000000000000000000000000000000008152600401610c679190611747565b60405180910390fd5b610c7981610f52565b50565b6000610c8782610855565b9050919050565b60076020528060005260406000206000915090505481565b610cae610d2d565b73ffffffffffffffffffffffffffffffffffffffff16610ccc6108b1565b73ffffffffffffffffffffffffffffffffffffffff1614610d2b57610cef610d2d565b6040517f118cdaa7000000000000000000000000000000000000000000000000000000008152600401610d229190611747565b60405180910390fd5b565b600033905090565b610d42838383600161109a565b505050565b6000610d538484610b6f565b90507fffffffffffffffffffffffffffffffffffffffffffffffffffffffffffffffff811015610dd65781811015610dc6578281836040517ffb8f41b2000000000000000000000000000000000000000000000000000000008152600401610dbd93929190611adb565b60405180910390fd5b610dd58484848403600061109a565b5b50505050565b600073ffffffffffffffffffffffffffffffffffffffff168373ffffffffffffffffffffffffffffffffffffffff1603610e4e5760006040517f96c6fd1e000000000000000000000000000000000000000000000000000000008152600401610e459190611747565b60405180910390fd5b600073ffffffffffffffffffffffffffffffffffffffff168273ffffffffffffffffffffffffffffffffffffffff1603610ec05760006040517fec442f05000000000000000000000000000000000000000000000000000000008152600401610eb79190611747565b60405180910390fd5b610ecb838383611271565b505050565b600073ffffffffffffffffffffffffffffffffffffffff168273ffffffffffffffffffffffffffffffffffffffff1603610f425760006040517fec442f05000000000000000000000000000000000000000000000000000000008152600401610f399190611747565b60405180910390fd5b610f4e60008383611271565b5050565b6000600560009054906101000a900473ffffffffffffffffffffffffffffffffffffffff16905081600560006101000a81548173ffffffffffffffffffffffffffffffffffffffff021916908373ffffffffffffffffffffffffffffffffffffffff1602179055508173ffffffffffffffffffffffffffffffffffffffff168173ffffffffffffffffffffffffffffffffffffffff167f8be0079c531659141344cd1fd0a4f28419497f9722a3daafe3b4186f6b6457e060405160405180910390a35050565b600073ffffffffffffffffffffffffffffffffffffffff168273ffffffffffffffffffffffffffffffffffffffff160361108a5760006040517f96c6fd1e0000000000000000000000000000000000000000000000000000000081526004016110819190611747565b60405180910390fd5b61109682600083611271565b5050565b600073ffffffffffffffffffffffffffffffffffffffff168473ffffffffffffffffffffffffffffffffffffffff160361110c5760006040517fe602df050000000000000000000000000000000000000000000000000000000081526004016111039190611747565b60405180910390fd5b600073ffffffffffffffffffffffffffffffffffffffff168373ffffffffffffffffffffffffffffffffffffffff160361117e5760006040517f94280d620000000000000000000000000000000000000000000000000000000081526004016111759190611747565b60405180910390fd5b81600160008673ffffffffffffffffffffffffffffffffffffffff1673ffffffffffffffffffffffffffffffffffffffff16815260200190815260200160002060008573ffffffffffffffffffffffffffffffffffffffff1673ffffffffffffffffffffffffffffffffffffffff16815260200190815260200160002081905550801561126b578273ffffffffffffffffffffffffffffffffffffffff168473ffffffffffffffffffffffffffffffffffffffff167f8c5be1e5ebec7d5bd14f71427d1e84f3dd0314c0f7b2291e5b200ac8c7c3b92584604051611262919061153f565b60405180910390a35b50505050565b600073ffffffffffffffffffffffffffffffffffffffff168373ffffffffffffffffffffffffffffffffffffffff16036112c35780600260008282546112b79190611a07565b92505081905550611396565b60008060008573ffffffffffffffffffffffffffffffffffffffff1673ffffffffffffffffffffffffffffffffffffffff1681526020019081526020016000205490508181101561134f578381836040517fe450d38c00000000000000000000000000000000000000000000000000000000815260040161134693929190611adb565b60405180910390fd5b8181036000808673ffffffffffffffffffffffffffffffffffffffff1673ffffffffffffffffffffffffffffffffffffffff16815260200190815260200160002081905550505b600073ffffffffffffffffffffffffffffffffffffffff168273ffffffffffffffffffffffffffffffffffffffff16036113df578060026000828254039250508190555061142c565b806000808473ffffffffffffffffffffffffffffffffffffffff1673ffffffffffffffffffffffffffffffffffffffff168152602001908152602001600020600082825401925050819055505b8173ffffffffffffffffffffffffffffffffffffffff168373ffffffffffffffffffffffffffffffffffffffff167fddf252ad1be2c89b69c2b068fc378daa952ba7f163c4a11628f55a4df523b3ef83604051611489919061153f565b60405180910390a3505050565b600080fd5b600073ffffffffffffffffffffffffffffffffffffffff82169050919050565b60006114c68261149b565b9050919050565b6114d6816114bb565b81146114e157600080fd5b50565b6000813590506114f3816114cd565b92915050565b60006020828403121561150f5761150e611496565b5b600061151d848285016114e4565b91505092915050565b6000819050919050565b61153981611526565b82525050565b60006020820190506115546000830184611530565b92915050565b600081519050919050565b600082825260208201905092915050565b60005b83811015611594578082015181840152602081019050611579565b60008484015250505050565b6000601f19601f8301169050919050565b60006115bc8261155a565b6115c68185611565565b93506115d6818560208601611576565b6115df816115a0565b840191505092915050565b6000602082019050818103600083015261160481846115b1565b905092915050565b61161581611526565b811461162057600080fd5b50565b6000813590506116328161160c565b92915050565b6000806040838503121561164f5761164e611496565b5b600061165d858286016114e4565b925050602061166e85828601611623565b9150509250929050565b60008115159050919050565b61168d81611678565b82525050565b60006020820190506116a86000830184611684565b92915050565b6000806000606084860312156116c7576116c6611496565b5b60006116d5868287016114e4565b93505060206116e6868287016114e4565b92505060406116f786828701611623565b9150509250925092565b600060ff82169050919050565b61171781611701565b82525050565b6000602082019050611732600083018461170e565b92915050565b611741816114bb565b82525050565b600060208201905061175c6000830184611738565b92915050565b6000806040838503121561177957611778611496565b5b6000611787858286016114e4565b9250506020611798858286016114e4565b9150509250929050565b7f496e76616c696420706f6f6c2061646472657373000000000000000000000000600082015250565b60006117d8601483611565565b91506117e3826117a2565b602082019050919050565b60006020820190508181036000830152611807816117cb565b9050919050565b7f4e487b7100000000000000000000000000000000000000000000000000000000600052602260045260246000fd5b6000600282049050600182168061185557607f821691505b6020821081036118685761186761180e565b5b50919050565b7f4f6e6c79206c697175696469747920706f6f6c2063616e2063616c6c2074686960008201527f7300000000000000000000000000000000000000000000000000000000000000602082015250565b60006118ca602183611565565b91506118d58261186e565b604082019050919050565b600060208201905081810360008301526118f9816118bd565b9050919050565b7f496e76616c696420696e766573746f7220616464726573730000000000000000600082015250565b6000611936601883611565565b915061194182611900565b602082019050919050565b6000602082019050818103600083015261196581611929565b9050919050565b7f416d6f756e74206d7573742062652067726561746572207468616e207a65726f600082015250565b60006119a2602083611565565b91506119ad8261196c565b602082019050919050565b600060208201905081810360008301526119d181611995565b9050919050565b7f4e487b7100000000000000000000000000000000000000000000000000000000600052601160045260246000fd5b6000611a1282611526565b9150611a1d83611526565b9250828201905080821115611a3557611a346119d8565b5b92915050565b7f496e73756666696369656e7420746f6b656e2062616c616e6365000000000000600082015250565b6000611a71601a83611565565b9150611a7c82611a3b565b602082019050919050565b60006020820190508181036000830152611aa081611a64565b9050919050565b6000611ab282611526565b9150611abd83611526565b9250828203905081811115611ad557611ad46119d8565b5b92915050565b6000606082019050611af06000830186611738565b611afd6020830185611530565b611b0a6040830184611530565b94935050505056fea26469706673582212202b3c9d843bc0f368f3800f87b3521eb2b0b7c93582138f04eedf460e68ede68a64736f6c634300081c0033",
  "linkReferences": {},
  "deployedLinkReferences": {}
}