{
  "_format": "hh-sol-artifact-1",
  "contractName": "GlofiPayout",
  "sourceName": "contracts/GlofiPayout.sol",
  "abi": [
    {
      "inputs": [
        {
          "internalType": "address",
          "name": "initialOwner",
          "type": "address"
        },
        {
          "internalType": "address",
          "name": "_poolAddress",
          "type": "address"
        },
        {
          "internalType": "address",
          "name": "_usdcAddress",
          "type": "address"
        },
        {
          "internalType": "address",
          "name": "_treasury",
          "type": "address"
        }
      ],
      "stateMutability": "nonpayable",
      "type": "constructor"
    },
    {
      "inputs": [
        {
          "internalType": "address",
          "name": "owner",
          "type": "address"
        }
      ],
      "name": "OwnableInvalidOwner",
      "type": "error"
    },
    {
      "inputs": [
        {
          "internalType": "address",
          "name": "account",
          "type": "address"
        }
      ],
      "name": "OwnableUnauthorizedAccount",
      "type": "error"
    },
    {
      "anonymous": false,
      "inputs": [
        {
          "indexed": true,
          "internalType": "address",
          "name": "trader",
          "type": "address"
        },
        {
          "indexed": false,
          "internalType": "uint256",
          "name": "amount",
          "type": "uint256"
        },
        {
          "indexed": false,
          "internalType": "string",
          "name": "reason",
          "type": "string"
        }
      ],
      "name": "Clawback",
      "type": "event"
    },
    {
      "anonymous": false,
      "inputs": [
        {
          "indexed": true,
          "internalType": "address",
          "name": "evaluator",
          "type": "address"
        }
      ],
      "name": "EvaluatorSet",
      "type": "event"
    },
    {
      "anonymous": false,
      "inputs": [
        {
          "indexed": true,
          "internalType": "address",
          "name": "previousOwner",
          "type": "address"
        },
        {
          "indexed": true,
          "internalType": "address",
          "name": "newOwner",
          "type": "address"
        }
      ],
      "name": "OwnershipTransferred",
      "type": "event"
    },
    {
      "anonymous": false,
      "inputs": [
        {
          "indexed": true,
          "internalType": "address",
          "name": "trader",
          "type": "address"
        },
        {
          "indexed": false,
          "internalType": "uint256",
          "name": "traderAmount",
          "type": "uint256"
        },
        {
          "indexed": false,
          "internalType": "uint256",
          "name": "poolAmount",
          "type": "uint256"
        },
        {
          "indexed": false,
          "internalType": "uint256",
          "name": "treasuryAmount",
          "type": "uint256"
        }
      ],
      "name": "PayoutDistributed",
      "type": "event"
    },
    {
      "anonymous": false,
      "inputs": [
        {
          "indexed": true,
          "internalType": "address",
          "name": "trader",
          "type": "address"
        },
        {
          "indexed": false,
          "internalType": "uint256",
          "name": "grossProfit",
          "type": "uint256"
        }
      ],
      "name": "ProfitSubmitted",
      "type": "event"
    },
    {
      "anonymous": false,
      "inputs": [
        {
          "indexed": false,
          "internalType": "uint256",
          "name": "traderSplit",
          "type": "uint256"
        },
        {
          "indexed": false,
          "internalType": "uint256",
          "name": "poolSplit",
          "type": "uint256"
        },
        {
          "indexed": false,
          "internalType": "uint256",
          "name": "treasurySplit",
          "type": "uint256"
        }
      ],
      "name": "SplitUpdated",
      "type": "event"
    },
    {
      "anonymous": false,
      "inputs": [
        {
          "indexed": true,
          "internalType": "address",
          "name": "treasury",
          "type": "address"
        }
      ],
      "name": "TreasurySet",
      "type": "event"
    },
    {
      "inputs": [],
      "name": "claimPayout",
      "outputs": [],
      "stateMutability": "nonpayable",
      "type": "function"
    },
    {
      "inputs": [
        {
          "internalType": "address",
          "name": "trader",
          "type": "address"
        },
        {
          "internalType": "uint256",
          "name": "amount",
          "type": "uint256"
        },
        {
          "internalType": "string",
          "name": "reason",
          "type": "string"
        }
      ],
      "name": "clawback",
      "outputs": [],
      "stateMutability": "nonpayable",
      "type": "function"
    },
    {
      "inputs": [],
      "name": "evaluator",
      "outputs": [
        {
          "internalType": "address",
          "name": "",
          "type": "address"
        }
      ],
      "stateMutability": "view",
      "type": "function"
    },
    {
      "inputs": [],
      "name": "getCurrentSplit",
      "outputs": [
        {
          "internalType": "uint256",
          "name": "",
          "type": "uint256"
        },
        {
          "internalType": "uint256",
          "name": "",
          "type": "uint256"
        },
        {
          "internalType": "uint256",
          "name": "",
          "type": "uint256"
        }
      ],
      "stateMutability": "view",
      "type": "function"
    },
    {
      "inputs": [
        {
          "internalType": "address",
          "name": "trader",
          "type": "address"
        }
      ],
      "name": "getLifetimePayout",
      "outputs": [
        {
          "internalType": "uint256",
          "name": "",
          "type": "uint256"
        }
      ],
      "stateMutability": "view",
      "type": "function"
    },
    {
      "inputs": [
        {
          "internalType": "address",
          "name": "trader",
          "type": "address"
        }
      ],
      "name": "getPendingPayout",
      "outputs": [
        {
          "internalType": "uint256",
          "name": "",
          "type": "uint256"
        }
      ],
      "stateMutability": "view",
      "type": "function"
    },
    {
      "inputs": [
        {
          "internalType": "address",
          "name": "",
          "type": "address"
        }
      ],
      "name": "lifetimePayout",
      "outputs": [
        {
          "internalType": "uint256",
          "name": "",
          "type": "uint256"
        }
      ],
      "stateMutability": "view",
      "type": "function"
    },
    {
      "inputs": [],
      "name": "owner",
      "outputs": [
        {
          "internalType": "address",
          "name": "",
          "type": "address"
        }
      ],
      "stateMutability": "view",
      "type": "function"
    },
    {
      "inputs": [
        {
          "internalType": "address",
          "name": "",
          "type": "address"
        }
      ],
      "name": "pendingPayout",
      "outputs": [
        {
          "internalType": "uint256",
          "name": "",
          "type": "uint256"
        }
      ],
      "stateMutability": "view",
      "type": "function"
    },
    {
      "inputs": [],
      "name": "pool",
      "outputs": [
        {
          "internalType": "contract GlofiPool",
          "name": "",
          "type": "address"
        }
      ],
      "stateMutability": "view",
      "type": "function"
    },
    {
      "inputs": [],
      "name": "poolSplit",
      "outputs": [
        {
          "internalType": "uint256",
          "name": "",
          "type": "uint256"
        }
      ],
      "stateMutability": "view",
      "type": "function"
    },
    {
      "inputs": [],
      "name": "renounceOwnership",
      "outputs": [],
      "stateMutability": "nonpayable",
      "type": "function"
    },
    {
      "inputs": [
        {
          "internalType": "address",
          "name": "_evaluator",
          "type": "address"
        }
      ],
      "name": "setEvaluator",
      "outputs": [],
      "stateMutability": "nonpayable",
      "type": "function"
    },
    {
      "inputs": [
        {
          "internalType": "address",
          "name": "_treasury",
          "type": "address"
        }
      ],
      "name": "setTreasury",
      "outputs": [],
      "stateMutability": "nonpayable",
      "type": "function"
    },
    {
      "inputs": [
        {
          "internalType": "address",
          "name": "trader",
          "type": "address"
        },
        {
          "internalType": "uint256",
          "name": "grossProfit",
          "type": "uint256"
        }
      ],
      "name": "submitProfit",
      "outputs": [],
      "stateMutability": "nonpayable",
      "type": "function"
    },
    {
      "inputs": [],
      "name": "totalTreasuryRevenue",
      "outputs": [
        {
          "internalType": "uint256",
          "name": "",
          "type": "uint256"
        }
      ],
      "stateMutability": "view",
      "type": "function"
    },
    {
      "inputs": [],
      "name": "traderSplit",
      "outputs": [
        {
          "internalType": "uint256",
          "name": "",
          "type": "uint256"
        }
      ],
      "stateMutability": "view",
      "type": "function"
    },
    {
      "inputs": [
        {
          "internalType": "address",
          "name": "newOwner",
          "type": "address"
        }
      ],
      "name": "transferOwnership",
      "outputs": [],
      "stateMutability": "nonpayable",
      "type": "function"
    },
    {
      "inputs": [],
      "name": "treasury",
      "outputs": [
        {
          "internalType": "address",
          "name": "",
          "type": "address"
        }
      ],
      "stateMutability": "view",
      "type": "function"
    },
    {
      "inputs": [],
      "name": "treasurySplit",
      "outputs": [
        {
          "internalType": "uint256",
          "name": "",
          "type": "uint256"
        }
      ],
      "stateMutability": "view",
      "type": "function"
    },
    {
      "inputs": [
        {
          "internalType": "uint256",
          "name": "_traderSplit",
          "type": "uint256"
        },
        {
          "internalType": "uint256",
          "name": "_poolSplit",
          "type": "uint256"
        },
        {
          "internalType": "uint256",
          "name": "_treasurySplit",
          "type": "uint256"
        }
      ],
      "name": "updateSplit",
      "outputs": [],
      "stateMutability": "nonpayable",
      "type": "function"
    },
    {
      "inputs": [],
      "name": "usdc",
      "outputs": [
        {
          "internalType": "contract IERC20",
          "name": "",
          "type": "address"
        }
      ],
      "stateMutability": "view",
      "type": "function"
    }
  ],
  "bytecode": "0x60806040526050600555600f600655600560075534801561001f57600080fd5b5060405161252b38038061252b833981810160405281019061004191906102b7565b83600073ffffffffffffffffffffffffffffffffffffffff168173ffffffffffffffffffffffffffffffffffffffff16036100b45760006040517f1e4fbdf70000000000000000000000000000000000000000000000000000000081526004016100ab919061032d565b60405180910390fd5b6100c38161019060201b60201c565b5082600160006101000a81548173ffffffffffffffffffffffffffffffffffffffff021916908373ffffffffffffffffffffffffffffffffffffffff16021790555081600260006101000a81548173ffffffffffffffffffffffffffffffffffffffff021916908373ffffffffffffffffffffffffffffffffffffffff16021790555080600360006101000a81548173ffffffffffffffffffffffffffffffffffffffff021916908373ffffffffffffffffffffffffffffffffffffffff16021790555050505050610348565b60008060009054906101000a900473ffffffffffffffffffffffffffffffffffffffff169050816000806101000a81548173ffffffffffffffffffffffffffffffffffffffff021916908373ffffffffffffffffffffffffffffffffffffffff1602179055508173ffffffffffffffffffffffffffffffffffffffff168173ffffffffffffffffffffffffffffffffffffffff167f8be0079c531659141344cd1fd0a4f28419497f9722a3daafe3b4186f6b6457e060405160405180910390a35050565b600080fd5b600073ffffffffffffffffffffffffffffffffffffffff82169050919050565b600061028482610259565b9050919050565b61029481610279565b811461029f57600080fd5b50565b6000815190506102b18161028b565b92915050565b600080600080608085870312156102d1576102d0610254565b5b60006102df878288016102a2565b94505060206102f0878288016102a2565b9350506040610301878288016102a2565b9250506060610312878288016102a2565b91505092959194509250565b61032781610279565b82525050565b6000602082019050610342600083018461031e565b92915050565b6121d4806103576000396000f3fe608060405234801561001057600080fd5b50600436106101425760003560e01c8063912ca9c3116100b8578063e9aa21b91161007c578063e9aa21b91461031b578063ef5ca7891461034b578063f0f442601461036b578063f2fde38b14610387578063f5bf1ca9146103a3578063f901ff55146103c157610142565b8063912ca9c3146102895780639cb93dd1146102a55780639e40524c146102c3578063e6810a50146102e1578063e88499a91461031157610142565b806342b8fcd71161010a57806342b8fcd7146101db5780636036c449146101f757806361d027b3146102135780636e36b01d14610231578063715018a6146102615780638da5cb5b1461026b57610142565b806302dbbbac146101475780630802492714610163578063103e9dc01461018157806316f0115b1461019f5780633e413bee146101bd575b600080fd5b610161600480360381019061015c9190611684565b6103f1565b005b61016b6104ef565b60405161017891906116ca565b60405180910390f35b6101896104f5565b60405161019691906116ca565b60405180910390f35b6101a76104fb565b6040516101b49190611744565b60405180910390f35b6101c5610521565b6040516101d29190611780565b60405180910390f35b6101f560048036038101906101f091906117c7565b610547565b005b610211600480360381019061020c9190611807565b610b6a565b005b61021b610c64565b6040516102289190611869565b60405180910390f35b61024b60048036038101906102469190611684565b610c8a565b60405161025891906116ca565b60405180910390f35b610269610cd3565b005b610273610ce7565b6040516102809190611869565b60405180910390f35b6102a3600480360381019061029e91906118e9565b610d10565b005b6102ad61107d565b6040516102ba9190611869565b60405180910390f35b6102cb6110a3565b6040516102d891906116ca565b60405180910390f35b6102fb60048036038101906102f69190611684565b6110a9565b60405161030891906116ca565b60405180910390f35b6103196110c1565b005b61033560048036038101906103309190611684565b6112c5565b60405161034291906116ca565b60405180910390f35b6103536112dd565b6040516103629392919061195d565b60405180910390f35b61038560048036038101906103809190611684565b6112f6565b005b6103a1600480360381019061039c9190611684565b6113f4565b005b6103ab61147a565b6040516103b891906116ca565b60405180910390f35b6103db60048036038101906103d69190611684565b611480565b6040516103e891906116ca565b60405180910390f35b6103f96114c9565b600073ffffffffffffffffffffffffffffffffffffffff168173ffffffffffffffffffffffffffffffffffffffff1603610468576040517f08c379a000000000000000000000000000000000000000000000000000000000815260040161045f906119f1565b60405180910390fd5b80600460006101000a81548173ffffffffffffffffffffffffffffffffffffffff021916908373ffffffffffffffffffffffffffffffffffffffff1602179055508073ffffffffffffffffffffffffffffffffffffffff167f2f254c337ab0817f67c5b98ae3acc4c867a9985063f770cff1fb3a065cb5226460405160405180910390a250565b600a5481565b60075481565b600160009054906101000a900473ffffffffffffffffffffffffffffffffffffffff1681565b600260009054906101000a900473ffffffffffffffffffffffffffffffffffffffff1681565b600460009054906101000a900473ffffffffffffffffffffffffffffffffffffffff1673ffffffffffffffffffffffffffffffffffffffff163373ffffffffffffffffffffffffffffffffffffffff16146105d7576040517f08c379a00000000000000000000000000000000000000000000000000000000081526004016105ce90611a5d565b60405180910390fd5b600073ffffffffffffffffffffffffffffffffffffffff168273ffffffffffffffffffffffffffffffffffffffff1603610646576040517f08c379a000000000000000000000000000000000000000000000000000000000815260040161063d90611ac9565b60405180910390fd5b60008111610689576040517f08c379a000000000000000000000000000000000000000000000000000000000815260040161068090611b35565b60405180910390fd5b600060646005548361069b9190611b84565b6106a59190611bf5565b905060006064600654846106b99190611b84565b6106c39190611bf5565b905060008183856106d49190611c26565b6106de9190611c26565b905082600860008773ffffffffffffffffffffffffffffffffffffffff1673ffffffffffffffffffffffffffffffffffffffff168152602001908152602001600020600082825461072f9190611c5a565b925050819055508473ffffffffffffffffffffffffffffffffffffffff167faad4c572ede7135dda6b07036dbb4551cf113c7781827ffa6c302369808b16bf8560405161077c91906116ca565b60405180910390a28473ffffffffffffffffffffffffffffffffffffffff167fc311585c21991a899695756d348134553da213a7d88e1e3d9e3f0ee82f65fc748484846040516107ce9392919061195d565b60405180910390a2600260009054906101000a900473ffffffffffffffffffffffffffffffffffffffff1673ffffffffffffffffffffffffffffffffffffffff166323b872dd33600160009054906101000a900473ffffffffffffffffffffffffffffffffffffffff16856040518463ffffffff1660e01b815260040161085793929190611c8e565b6020604051808303816000875af1158015610876573d6000803e3d6000fd5b505050506040513d601f19601f8201168201806040525081019061089a9190611cfd565b6108d9576040517f08c379a00000000000000000000000000000000000000000000000000000000081526004016108d090611d76565b60405180910390fd5b600160009054906101000a900473ffffffffffffffffffffffffffffffffffffffff1673ffffffffffffffffffffffffffffffffffffffff166364690c3c836040518263ffffffff1660e01b815260040161093491906116ca565b600060405180830381600087803b15801561094e57600080fd5b505af1158015610962573d6000803e3d6000fd5b50505050600260009054906101000a900473ffffffffffffffffffffffffffffffffffffffff1673ffffffffffffffffffffffffffffffffffffffff166323b872dd33600360009054906101000a900473ffffffffffffffffffffffffffffffffffffffff16846040518463ffffffff1660e01b81526004016109e793929190611c8e565b6020604051808303816000875af1158015610a06573d6000803e3d6000fd5b505050506040513d601f19601f82011682018060405250810190610a2a9190611cfd565b610a69576040517f08c379a0000000000000000000000000000000000000000000000000000000008152600401610a6090611de2565b60405180910390fd5b80600a6000828254610a7b9190611c5a565b92505081905550600260009054906101000a900473ffffffffffffffffffffffffffffffffffffffff1673ffffffffffffffffffffffffffffffffffffffff166323b872dd3330866040518463ffffffff1660e01b8152600401610ae193929190611c8e565b6020604051808303816000875af1158015610b00573d6000803e3d6000fd5b505050506040513d601f19601f82011682018060405250810190610b249190611cfd565b610b63576040517f08c379a0000000000000000000000000000000000000000000000000000000008152600401610b5a90611e4e565b60405180910390fd5b5050505050565b610b726114c9565b6064818385610b819190611c5a565b610b8b9190611c5a565b14610bcb576040517f08c379a0000000000000000000000000000000000000000000000000000000008152600401610bc290611eba565b60405180910390fd5b6046831015610c0f576040517f08c379a0000000000000000000000000000000000000000000000000000000008152600401610c0690611f26565b60405180910390fd5b8260058190555081600681905550806007819055507f95b2882909ccea0ce58632511997837ae8f96805cd299c681d1e91a39d5b7738838383604051610c579392919061195d565b60405180910390a1505050565b600360009054906101000a900473ffffffffffffffffffffffffffffffffffffffff1681565b6000600960008373ffffffffffffffffffffffffffffffffffffffff1673ffffffffffffffffffffffffffffffffffffffff168152602001908152602001600020549050919050565b610cdb6114c9565b610ce56000611550565b565b60008060009054906101000a900473ffffffffffffffffffffffffffffffffffffffff16905090565b600460009054906101000a900473ffffffffffffffffffffffffffffffffffffffff1673ffffffffffffffffffffffffffffffffffffffff163373ffffffffffffffffffffffffffffffffffffffff1614610da0576040517f08c379a0000000000000000000000000000000000000000000000000000000008152600401610d9790611a5d565b60405180910390fd5b600073ffffffffffffffffffffffffffffffffffffffff168473ffffffffffffffffffffffffffffffffffffffff1603610e0f576040517f08c379a0000000000000000000000000000000000000000000000000000000008152600401610e0690611ac9565b60405180910390fd5b60008311610e52576040517f08c379a0000000000000000000000000000000000000000000000000000000008152600401610e4990611f92565b60405180910390fd5b6000600860008673ffffffffffffffffffffffffffffffffffffffff1673ffffffffffffffffffffffffffffffffffffffff16815260200190815260200160002081905550600260009054906101000a900473ffffffffffffffffffffffffffffffffffffffff1673ffffffffffffffffffffffffffffffffffffffff1663a9059cbb600160009054906101000a900473ffffffffffffffffffffffffffffffffffffffff16856040518363ffffffff1660e01b8152600401610f16929190611fb2565b6020604051808303816000875af1158015610f35573d6000803e3d6000fd5b505050506040513d601f19601f82011682018060405250810190610f599190611cfd565b610f98576040517f08c379a0000000000000000000000000000000000000000000000000000000008152600401610f8f90612027565b60405180910390fd5b600160009054906101000a900473ffffffffffffffffffffffffffffffffffffffff1673ffffffffffffffffffffffffffffffffffffffff166396c4b648856040518263ffffffff1660e01b8152600401610ff39190611869565b600060405180830381600087803b15801561100d57600080fd5b505af1158015611021573d6000803e3d6000fd5b505050508373ffffffffffffffffffffffffffffffffffffffff167fdc8a8a54e409e2b83900072022e14ad04dea276a105448b82e632e9896567b0a84848460405161106f93929190612094565b60405180910390a250505050565b600460009054906101000a900473ffffffffffffffffffffffffffffffffffffffff1681565b60065481565b60086020528060005260406000206000915090505481565b6000600860003373ffffffffffffffffffffffffffffffffffffffff1673ffffffffffffffffffffffffffffffffffffffff16815260200190815260200160002054905060008111611148576040517f08c379a000000000000000000000000000000000000000000000000000000000815260040161113f90612112565b60405180910390fd5b6000600860003373ffffffffffffffffffffffffffffffffffffffff1673ffffffffffffffffffffffffffffffffffffffff1681526020019081526020016000208190555080600960003373ffffffffffffffffffffffffffffffffffffffff1673ffffffffffffffffffffffffffffffffffffffff16815260200190815260200160002060008282546111dc9190611c5a565b92505081905550600260009054906101000a900473ffffffffffffffffffffffffffffffffffffffff1673ffffffffffffffffffffffffffffffffffffffff1663a9059cbb33836040518363ffffffff1660e01b8152600401611240929190611fb2565b6020604051808303816000875af115801561125f573d6000803e3d6000fd5b505050506040513d601f19601f820116820180604052508101906112839190611cfd565b6112c2576040517f08c379a00000000000000000000000000000000000000000000000000000000081526004016112b99061217e565b60405180910390fd5b50565b60096020528060005260406000206000915090505481565b6000806000600554600654600754925092509250909192565b6112fe6114c9565b600073ffffffffffffffffffffffffffffffffffffffff168173ffffffffffffffffffffffffffffffffffffffff160361136d576040517f08c379a0000000000000000000000000000000000000000000000000000000008152600401611364906119f1565b60405180910390fd5b80600360006101000a81548173ffffffffffffffffffffffffffffffffffffffff021916908373ffffffffffffffffffffffffffffffffffffffff1602179055508073ffffffffffffffffffffffffffffffffffffffff167f3c864541ef71378c6229510ed90f376565ee42d9c5e0904a984a9e863e6db44f60405160405180910390a250565b6113fc6114c9565b600073ffffffffffffffffffffffffffffffffffffffff168173ffffffffffffffffffffffffffffffffffffffff160361146e5760006040517f1e4fbdf70000000000000000000000000000000000000000000000000000000081526004016114659190611869565b60405180910390fd5b61147781611550565b50565b60055481565b6000600860008373ffffffffffffffffffffffffffffffffffffffff1673ffffffffffffffffffffffffffffffffffffffff168152602001908152602001600020549050919050565b6114d1611614565b73ffffffffffffffffffffffffffffffffffffffff166114ef610ce7565b73ffffffffffffffffffffffffffffffffffffffff161461154e57611512611614565b6040517f118cdaa70000000000000000000000000000000000000000000000000000000081526004016115459190611869565b60405180910390fd5b565b60008060009054906101000a900473ffffffffffffffffffffffffffffffffffffffff169050816000806101000a81548173ffffffffffffffffffffffffffffffffffffffff021916908373ffffffffffffffffffffffffffffffffffffffff1602179055508173ffffffffffffffffffffffffffffffffffffffff168173ffffffffffffffffffffffffffffffffffffffff167f8be0079c531659141344cd1fd0a4f28419497f9722a3daafe3b4186f6b6457e060405160405180910390a35050565b600033905090565b600080fd5b600080fd5b600073ffffffffffffffffffffffffffffffffffffffff82169050919050565b600061165182611626565b9050919050565b61166181611646565b811461166c57600080fd5b50565b60008135905061167e81611658565b92915050565b60006020828403121561169a5761169961161c565b5b60006116a88482850161166f565b91505092915050565b6000819050919050565b6116c4816116b1565b82525050565b60006020820190506116df60008301846116bb565b92915050565b6000819050919050565b600061170a61170561170084611626565b6116e5565b611626565b9050919050565b600061171c826116ef565b9050919050565b600061172e82611711565b9050919050565b61173e81611723565b82525050565b60006020820190506117596000830184611735565b92915050565b600061176a82611711565b9050919050565b61177a8161175f565b82525050565b60006020820190506117956000830184611771565b92915050565b6117a4816116b1565b81146117af57600080fd5b50565b6000813590506117c18161179b565b92915050565b600080604083850312156117de576117dd61161c565b5b60006117ec8582860161166f565b92505060206117fd858286016117b2565b9150509250929050565b6000806000606084860312156118205761181f61161c565b5b600061182e868287016117b2565b935050602061183f868287016117b2565b9250506040611850868287016117b2565b9150509250925092565b61186381611646565b82525050565b600060208201905061187e600083018461185a565b92915050565b600080fd5b600080fd5b600080fd5b60008083601f8401126118a9576118a8611884565b5b8235905067ffffffffffffffff8111156118c6576118c5611889565b5b6020830191508360018202830111156118e2576118e161188e565b5b9250929050565b600080600080606085870312156119035761190261161c565b5b60006119118782880161166f565b9450506020611922878288016117b2565b935050604085013567ffffffffffffffff81111561194357611942611621565b5b61194f87828801611893565b925092505092959194509250565b600060608201905061197260008301866116bb565b61197f60208301856116bb565b61198c60408301846116bb565b949350505050565b600082825260208201905092915050565b7f496e76616c696420616464726573730000000000000000000000000000000000600082015250565b60006119db600f83611994565b91506119e6826119a5565b602082019050919050565b60006020820190508181036000830152611a0a816119ce565b9050919050565b7f4f6e6c79206576616c7561746f72000000000000000000000000000000000000600082015250565b6000611a47600e83611994565b9150611a5282611a11565b602082019050919050565b60006020820190508181036000830152611a7681611a3a565b9050919050565b7f496e76616c696420747261646572000000000000000000000000000000000000600082015250565b6000611ab3600e83611994565b9150611abe82611a7d565b602082019050919050565b60006020820190508181036000830152611ae281611aa6565b9050919050565b7f4e6f2070726f66697420746f2064697374726962757465000000000000000000600082015250565b6000611b1f601783611994565b9150611b2a82611ae9565b602082019050919050565b60006020820190508181036000830152611b4e81611b12565b9050919050565b7f4e487b7100000000000000000000000000000000000000000000000000000000600052601160045260246000fd5b6000611b8f826116b1565b9150611b9a836116b1565b9250828202611ba8816116b1565b91508282048414831517611bbf57611bbe611b55565b5b5092915050565b7f4e487b7100000000000000000000000000000000000000000000000000000000600052601260045260246000fd5b6000611c00826116b1565b9150611c0b836116b1565b925082611c1b57611c1a611bc6565b5b828204905092915050565b6000611c31826116b1565b9150611c3c836116b1565b9250828203905081811115611c5457611c53611b55565b5b92915050565b6000611c65826116b1565b9150611c70836116b1565b9250828201905080821115611c8857611c87611b55565b5b92915050565b6000606082019050611ca3600083018661185a565b611cb0602083018561185a565b611cbd60408301846116bb565b949350505050565b60008115159050919050565b611cda81611cc5565b8114611ce557600080fd5b50565b600081519050611cf781611cd1565b92915050565b600060208284031215611d1357611d1261161c565b5b6000611d2184828501611ce8565b91505092915050565b7f506f6f6c207472616e73666572206661696c6564000000000000000000000000600082015250565b6000611d60601483611994565b9150611d6b82611d2a565b602082019050919050565b60006020820190508181036000830152611d8f81611d53565b9050919050565b7f5472656173757279207472616e73666572206661696c65640000000000000000600082015250565b6000611dcc601883611994565b9150611dd782611d96565b602082019050919050565b60006020820190508181036000830152611dfb81611dbf565b9050919050565b7f54726164657220616d6f756e74207472616e73666572206661696c6564000000600082015250565b6000611e38601d83611994565b9150611e4382611e02565b602082019050919050565b60006020820190508181036000830152611e6781611e2b565b9050919050565b7f4d75737420657175616c20313030000000000000000000000000000000000000600082015250565b6000611ea4600e83611994565b9150611eaf82611e6e565b602082019050919050565b60006020820190508181036000830152611ed381611e97565b9050919050565b7f5472616465722073706c697420746f6f206c6f77000000000000000000000000600082015250565b6000611f10601483611994565b9150611f1b82611eda565b602082019050919050565b60006020820190508181036000830152611f3f81611f03565b9050919050565b7f496e76616c696420616d6f756e74000000000000000000000000000000000000600082015250565b6000611f7c600e83611994565b9150611f8782611f46565b602082019050919050565b60006020820190508181036000830152611fab81611f6f565b9050919050565b6000604082019050611fc7600083018561185a565b611fd460208301846116bb565b9392505050565b7f436c61776261636b207472616e73666572206661696c65640000000000000000600082015250565b6000612011601883611994565b915061201c82611fdb565b602082019050919050565b6000602082019050818103600083015261204081612004565b9050919050565b82818337600083830152505050565b6000601f19601f8301169050919050565b60006120738385611994565b9350612080838584612047565b61208983612056565b840190509392505050565b60006040820190506120a960008301866116bb565b81810360208301526120bc818486612067565b9050949350505050565b7f4e6f2070656e64696e67207061796f7574000000000000000000000000000000600082015250565b60006120fc601183611994565b9150612107826120c6565b602082019050919050565b6000602082019050818103600083015261212b816120ef565b9050919050565b7f5061796f7574207472616e73666572206661696c656400000000000000000000600082015250565b6000612168601683611994565b915061217382612132565b602082019050919050565b600060208201905081810360008301526121978161215b565b905091905056fea264697066735822122090e7623e8b113936a924c84e7ea60d1ec6a61da5ef970aef58fdb5e6c3a9752d64736f6c634300081c0033",
  "linkReferences": {},
  "deployedLinkReferences": {}
}