{
  "_format": "hh-sol-artifact-1",
  "contractName": "GlofiPool",
  "sourceName": "contracts/GlofiPool.sol",
  "abi": [
    {
      "inputs": [
        {
          "internalType": "address",
          "name": "initialOwner",
          "type": "address"
        },
        {
          "internalType": "address",
          "name": "_usdcAddress",
          "type": "address"
        },
        {
          "internalType": "address",
          "name": "_glofiTokenAddress",
          "type": "address"
        }
      ],
      "stateMutability": "nonpayable",
      "type": "constructor"
    },
    {
      "inputs": [
        {
          "internalType": "address",
          "name": "owner",
          "type": "address"
        }
      ],
      "name": "OwnableInvalidOwner",
      "type": "error"
    },
    {
      "inputs": [
        {
          "internalType": "address",
          "name": "account",
          "type": "address"
        }
      ],
      "name": "OwnableUnauthorizedAccount",
      "type": "error"
    },
    {
      "anonymous": false,
      "inputs": [
        {
          "indexed": true,
          "internalType": "address",
          "name": "contractAddress",
          "type": "address"
        }
      ],
      "name": "ChallengeContractSet",
      "type": "event"
    },
    {
      "anonymous": false,
      "inputs": [
        {
          "indexed": true,
          "internalType": "address",
          "name": "investor",
          "type": "address"
        },
        {
          "indexed": false,
          "internalType": "uint256",
          "name": "usdcAmount",
          "type": "uint256"
        },
        {
          "indexed": false,
          "internalType": "uint256",
          "name": "tokensReceived",
          "type": "uint256"
        }
      ],
      "name": "Deposited",
      "type": "event"
    },
    {
      "anonymous": false,
      "inputs": [
        {
          "indexed": true,
          "internalType": "address",
          "name": "trader",
          "type": "address"
        },
        {
          "indexed": false,
          "internalType": "uint256",
          "name": "amount",
          "type": "uint256"
        }
      ],
      "name": "LiquidityReleased",
      "type": "event"
    },
    {
      "anonymous": false,
      "inputs": [
        {
          "indexed": true,
          "internalType": "address",
          "name": "trader",
          "type": "address"
        },
        {
          "indexed": false,
          "internalType": "uint256",
          "name": "amount",
          "type": "uint256"
        }
      ],
      "name": "LiquidityReserved",
      "type": "event"
    },
    {
      "anonymous": false,
      "inputs": [
        {
          "indexed": true,
          "internalType": "address",
          "name": "previousOwner",
          "type": "address"
        },
        {
          "indexed": true,
          "internalType": "address",
          "name": "newOwner",
          "type": "address"
        }
      ],
      "name": "OwnershipTransferred",
      "type": "event"
    },
    {
      "anonymous": false,
      "inputs": [
        {
          "indexed": true,
          "internalType": "address",
          "name": "trader",
          "type": "address"
        },
        {
          "indexed": false,
          "internalType": "uint256",
          "name": "amount",
          "type": "uint256"
        }
      ],
      "name": "ProfitReceived",
      "type": "event"
    },
    {
      "anonymous": false,
      "inputs": [
        {
          "indexed": true,
          "internalType": "address",
          "name": "investor",
          "type": "address"
        },
        {
          "indexed": false,
          "internalType": "uint256",
          "name": "usdcAmount",
          "type": "uint256"
        },
        {
          "indexed": false,
          "internalType": "uint256",
          "name": "tokensBurned",
          "type": "uint256"
        }
      ],
      "name": "Withdrawn",
      "type": "event"
    },
    {
      "inputs": [],
      "name": "challengeContract",
      "outputs": [
        {
          "internalType": "address",
          "name": "",
          "type": "address"
        }
      ],
      "stateMutability": "view",
      "type": "function"
    },
    {
      "inputs": [
        {
          "internalType": "uint256",
          "name": "amount",
          "type": "uint256"
        }
      ],
      "name": "deposit",
      "outputs": [],
      "stateMutability": "nonpayable",
      "type": "function"
    },
    {
      "inputs": [],
      "name": "getFreeLiquidity",
      "outputs": [
        {
          "internalType": "uint256",
          "name": "",
          "type": "uint256"
        }
      ],
      "stateMutability": "view",
      "type": "function"
    },
    {
      "inputs": [
        {
          "internalType": "address",
          "name": "investor",
          "type": "address"
        }
      ],
      "name": "getInvestorValue",
      "outputs": [
        {
          "internalType": "uint256",
          "name": "",
          "type": "uint256"
        }
      ],
      "stateMutability": "view",
      "type": "function"
    },
    {
      "inputs": [],
      "name": "getPoolStats",
      "outputs": [
        {
          "internalType": "uint256",
          "name": "_totalPoolValue",
          "type": "uint256"
        },
        {
          "internalType": "uint256",
          "name": "_reservedLiquidity",
          "type": "uint256"
        },
        {
          "internalType": "uint256",
          "name": "_freeLiquidity",
          "type": "uint256"
        },
        {
          "internalType": "uint256",
          "name": "_totalTokenSupply",
          "type": "uint256"
        }
      ],
      "stateMutability": "view",
      "type": "function"
    },
    {
      "inputs": [
        {
          "internalType": "address",
          "name": "trader",
          "type": "address"
        }
      ],
      "name": "getTraderAllocation",
      "outputs": [
        {
          "internalType": "uint256",
          "name": "",
          "type": "uint256"
        }
      ],
      "stateMutability": "view",
      "type": "function"
    },
    {
      "inputs": [],
      "name": "glofiToken",
      "outputs": [
        {
          "internalType": "contract GlofiToken",
          "name": "",
          "type": "address"
        }
      ],
      "stateMutability": "view",
      "type": "function"
    },
    {
      "inputs": [
        {
          "internalType": "address",
          "name": "",
          "type": "address"
        }
      ],
      "name": "investorDeposit",
      "outputs": [
        {
          "internalType": "uint256",
          "name": "",
          "type": "uint256"
        }
      ],
      "stateMutability": "view",
      "type": "function"
    },
    {
      "inputs": [],
      "name": "owner",
      "outputs": [
        {
          "internalType": "address",
          "name": "",
          "type": "address"
        }
      ],
      "stateMutability": "view",
      "type": "function"
    },
    {
      "inputs": [
        {
          "internalType": "uint256",
          "name": "amount",
          "type": "uint256"
        }
      ],
      "name": "receiveProfit",
      "outputs": [],
      "stateMutability": "nonpayable",
      "type": "function"
    },
    {
      "inputs": [
        {
          "internalType": "address",
          "name": "trader",
          "type": "address"
        }
      ],
      "name": "releaseLiquidity",
      "outputs": [],
      "stateMutability": "nonpayable",
      "type": "function"
    },
    {
      "inputs": [],
      "name": "renounceOwnership",
      "outputs": [],
      "stateMutability": "nonpayable",
      "type": "function"
    },
    {
      "inputs": [
        {
          "internalType": "address",
          "name": "trader",
          "type": "address"
        },
        {
          "internalType": "uint256",
          "name": "amount",
          "type": "uint256"
        }
      ],
      "name": "reserveLiquidity",
      "outputs": [],
      "stateMutability": "nonpayable",
      "type": "function"
    },
    {
      "inputs": [],
      "name": "reservedLiquidity",
      "outputs": [
        {
          "internalType": "uint256",
          "name": "",
          "type": "uint256"
        }
      ],
      "stateMutability": "view",
      "type": "function"
    },
    {
      "inputs": [
        {
          "internalType": "address",
          "name": "_challengeContract",
          "type": "address"
        }
      ],
      "name": "setChallengeContract",
      "outputs": [],
      "stateMutability": "nonpayable",
      "type": "function"
    },
    {
      "inputs": [],
      "name": "totalPoolValue",
      "outputs": [
        {
          "internalType": "uint256",
          "name": "",
          "type": "uint256"
        }
      ],
      "stateMutability": "view",
      "type": "function"
    },
    {
      "inputs": [
        {
          "internalType": "address",
          "name": "",
          "type": "address"
        }
      ],
      "name": "traderAllocation",
      "outputs": [
        {
          "internalType": "uint256",
          "name": "",
          "type": "uint256"
        }
      ],
      "stateMutability": "view",
      "type": "function"
    },
    {
      "inputs": [
        {
          "internalType": "address",
          "name": "newOwner",
          "type": "address"
        }
      ],
      "name": "transferOwnership",
      "outputs": [],
      "stateMutability": "nonpayable",
      "type": "function"
    },
    {
      "inputs": [],
      "name": "usdc",
      "outputs": [
        {
          "internalType": "contract IERC20",
          "name": "",
          "type": "address"
        }
      ],
      "stateMutability": "view",
      "type": "function"
    },
    {
      "inputs": [
        {
          "internalType": "uint256",
          "name": "tokenAmount",
          "type": "uint256"
        }
      ],
      "name": "withdraw",
      "outputs": [],
      "stateMutability": "nonpayable",
      "type": "function"
    }
  ],
  "bytecode": "0x608060405234801561001057600080fd5b5060405161233938038061233983398181016040528101906100329190610266565b82600073ffffffffffffffffffffffffffffffffffffffff168173ffffffffffffffffffffffffffffffffffffffff16036100a55760006040517f1e4fbdf700000000000000000000000000000000000000000000000000000000815260040161009c91906102c8565b60405180910390fd5b6100b48161013f60201b60201c565b5081600160006101000a81548173ffffffffffffffffffffffffffffffffffffffff021916908373ffffffffffffffffffffffffffffffffffffffff16021790555080600260006101000a81548173ffffffffffffffffffffffffffffffffffffffff021916908373ffffffffffffffffffffffffffffffffffffffff1602179055505050506102e3565b60008060009054906101000a900473ffffffffffffffffffffffffffffffffffffffff169050816000806101000a81548173ffffffffffffffffffffffffffffffffffffffff021916908373ffffffffffffffffffffffffffffffffffffffff1602179055508173ffffffffffffffffffffffffffffffffffffffff168173ffffffffffffffffffffffffffffffffffffffff167f8be0079c531659141344cd1fd0a4f28419497f9722a3daafe3b4186f6b6457e060405160405180910390a35050565b600080fd5b600073ffffffffffffffffffffffffffffffffffffffff82169050919050565b600061023382610208565b9050919050565b61024381610228565b811461024e57600080fd5b50565b6000815190506102608161023a565b92915050565b60008060006060848603121561027f5761027e610203565b5b600061028d86828701610251565b935050602061029e86828701610251565b92505060406102af86828701610251565b9150509250925092565b6102c281610228565b82525050565b60006020820190506102dd60008301846102b9565b92915050565b612047806102f26000396000f3fe608060405234801561001057600080fd5b506004361061012c5760003560e01c80638da5cb5b116100ad578063b6b55f2511610071578063b6b55f251461030d578063bbb8518814610329578063c8c49f321461034a578063e708d50314610366578063f2fde38b146103965761012c565b80638da5cb5b1461027b57806396c4b648146102995780639f308512146102b5578063ac51ae3b146102d3578063b37256b9146102f15761012c565b8063438031c3116100f4578063438031c3146101e957806364690c3c14610207578063715018a614610223578063833678071461022d5780638a02775b1461025d5761012c565b80631273970c146101315780631a8fa6f314610161578063267081b2146101915780632e1a7d4d146101af5780633e413bee146101cb575b600080fd5b61014b60048036038101906101469190611786565b6103b2565b60405161015891906117cc565b60405180910390f35b61017b60048036038101906101769190611786565b6103ca565b60405161018891906117cc565b60405180910390f35b610199610536565b6040516101a691906117cc565b60405180910390f35b6101c960048036038101906101c49190611813565b61054d565b005b6101d36109ed565b6040516101e0919061189f565b60405180910390f35b6101f1610a13565b6040516101fe91906118c9565b60405180910390f35b610221600480360381019061021c9190611813565b610a39565b005b61022b610bc7565b005b61024760048036038101906102429190611786565b610bdb565b60405161025491906117cc565b60405180910390f35b610265610bf3565b60405161027291906117cc565b60405180910390f35b610283610bf9565b60405161029091906118c9565b60405180910390f35b6102b360048036038101906102ae9190611786565b610c22565b005b6102bd610de9565b6040516102ca91906117cc565b60405180910390f35b6102db610def565b6040516102e89190611905565b60405180910390f35b61030b60048036038101906103069190611786565b610e15565b005b61032760048036038101906103229190611813565b610f13565b005b61033161125a565b6040516103419493929190611920565b60405180910390f35b610364600480360381019061035f9190611965565b611315565b005b610380600480360381019061037b9190611786565b611501565b60405161038d91906117cc565b60405180910390f35b6103b060048036038101906103ab9190611786565b61154a565b005b60076020528060005260406000206000915090505481565b600080600260009054906101000a900473ffffffffffffffffffffffffffffffffffffffff1673ffffffffffffffffffffffffffffffffffffffff166370a08231846040518263ffffffff1660e01b815260040161042891906118c9565b602060405180830381865afa158015610445573d6000803e3d6000fd5b505050506040513d601f19601f8201168201806040525081019061046991906119ba565b90506000600260009054906101000a900473ffffffffffffffffffffffffffffffffffffffff1673ffffffffffffffffffffffffffffffffffffffff1663c4e41b226040518163ffffffff1660e01b8152600401602060405180830381865afa1580156104da573d6000803e3d6000fd5b505050506040513d601f19601f820116820180604052508101906104fe91906119ba565b90506000810361051357600092505050610531565b80600454836105229190611a16565b61052c9190611a87565b925050505b919050565b60006005546004546105489190611ab8565b905090565b60008111610590576040517f08c379a000000000000000000000000000000000000000000000000000000000815260040161058790611b49565b60405180910390fd5b80600260009054906101000a900473ffffffffffffffffffffffffffffffffffffffff1673ffffffffffffffffffffffffffffffffffffffff166370a08231336040518263ffffffff1660e01b81526004016105ec91906118c9565b602060405180830381865afa158015610609573d6000803e3d6000fd5b505050506040513d601f19601f8201168201806040525081019061062d91906119ba565b101561066e576040517f08c379a000000000000000000000000000000000000000000000000000000000815260040161066590611bb5565b60405180910390fd5b6000600260009054906101000a900473ffffffffffffffffffffffffffffffffffffffff1673ffffffffffffffffffffffffffffffffffffffff1663c4e41b226040518163ffffffff1660e01b8152600401602060405180830381865afa1580156106dd573d6000803e3d6000fd5b505050506040513d601f19601f8201168201806040525081019061070191906119ba565b905060008111610746576040517f08c379a000000000000000000000000000000000000000000000000000000000815260040161073d90611c21565b60405180910390fd5b600081600454846107579190611a16565b6107619190611a87565b905060006005546004546107759190611ab8565b9050808211156107ba576040517f08c379a00000000000000000000000000000000000000000000000000000000081526004016107b190611cb3565b60405180910390fd5b81600460008282546107cc9190611ab8565b9250508190555081600660003373ffffffffffffffffffffffffffffffffffffffff1673ffffffffffffffffffffffffffffffffffffffff16815260200190815260200160002060008282546108229190611ab8565b92505081905550600260009054906101000a900473ffffffffffffffffffffffffffffffffffffffff1673ffffffffffffffffffffffffffffffffffffffff16639dc29fac33866040518363ffffffff1660e01b8152600401610886929190611cd3565b600060405180830381600087803b1580156108a057600080fd5b505af11580156108b4573d6000803e3d6000fd5b50505050600160009054906101000a900473ffffffffffffffffffffffffffffffffffffffff1673ffffffffffffffffffffffffffffffffffffffff1663a9059cbb33846040518363ffffffff1660e01b8152600401610915929190611cd3565b6020604051808303816000875af1158015610934573d6000803e3d6000fd5b505050506040513d601f19601f820116820180604052508101906109589190611d34565b610997576040517f08c379a000000000000000000000000000000000000000000000000000000000815260040161098e90611dad565b60405180910390fd5b3373ffffffffffffffffffffffffffffffffffffffff167f92ccf450a286a957af52509bc1c9939d1a6a481783e142e41e2499f0bb66ebc683866040516109df929190611dcd565b60405180910390a250505050565b600160009054906101000a900473ffffffffffffffffffffffffffffffffffffffff1681565b600360009054906101000a900473ffffffffffffffffffffffffffffffffffffffff1681565b60008111610a7c576040517f08c379a0000000000000000000000000000000000000000000000000000000008152600401610a7390611b49565b60405180910390fd5b600160009054906101000a900473ffffffffffffffffffffffffffffffffffffffff1673ffffffffffffffffffffffffffffffffffffffff166323b872dd3330846040518463ffffffff1660e01b8152600401610adb93929190611df6565b6020604051808303816000875af1158015610afa573d6000803e3d6000fd5b505050506040513d601f19601f82011682018060405250810190610b1e9190611d34565b610b5d576040517f08c379a0000000000000000000000000000000000000000000000000000000008152600401610b5490611dad565b60405180910390fd5b8060046000828254610b6f9190611e2d565b925050819055503373ffffffffffffffffffffffffffffffffffffffff167fb4a46c1bd84f6ead56b19bd0d3788d827200b4d73024081f1c083f904f68f21c82604051610bbc91906117cc565b60405180910390a250565b610bcf6115d0565b610bd96000611657565b565b60066020528060005260406000206000915090505481565b60045481565b60008060009054906101000a900473ffffffffffffffffffffffffffffffffffffffff16905090565b600360009054906101000a900473ffffffffffffffffffffffffffffffffffffffff1673ffffffffffffffffffffffffffffffffffffffff163373ffffffffffffffffffffffffffffffffffffffff1614610cb2576040517f08c379a0000000000000000000000000000000000000000000000000000000008152600401610ca990611ead565b60405180910390fd5b6000600760008373ffffffffffffffffffffffffffffffffffffffff1673ffffffffffffffffffffffffffffffffffffffff16815260200190815260200160002054905060008111610d39576040517f08c379a0000000000000000000000000000000000000000000000000000000008152600401610d3090611f19565b60405180910390fd5b8060056000828254610d4b9190611ab8565b925050819055506000600760008473ffffffffffffffffffffffffffffffffffffffff1673ffffffffffffffffffffffffffffffffffffffff168152602001908152602001600020819055508173ffffffffffffffffffffffffffffffffffffffff167f1bd0c4daf25a5f31af50b701ee252e5ef20c4cfc8ff6bff661ef3e32e6a1853382604051610ddd91906117cc565b60405180910390a25050565b60055481565b600260009054906101000a900473ffffffffffffffffffffffffffffffffffffffff1681565b610e1d6115d0565b600073ffffffffffffffffffffffffffffffffffffffff168173ffffffffffffffffffffffffffffffffffffffff1603610e8c576040517f08c379a0000000000000000000000000000000000000000000000000000000008152600401610e8390611f85565b60405180910390fd5b80600360006101000a81548173ffffffffffffffffffffffffffffffffffffffff021916908373ffffffffffffffffffffffffffffffffffffffff1602179055508073ffffffffffffffffffffffffffffffffffffffff167f696b44d70fe472cc45280d6642b1ff9816c9a06ebfca5ffb599a39369992ae4860405160405180910390a250565b60008111610f56576040517f08c379a0000000000000000000000000000000000000000000000000000000008152600401610f4d90611b49565b60405180910390fd5b600160009054906101000a900473ffffffffffffffffffffffffffffffffffffffff1673ffffffffffffffffffffffffffffffffffffffff166323b872dd3330846040518463ffffffff1660e01b8152600401610fb593929190611df6565b6020604051808303816000875af1158015610fd4573d6000803e3d6000fd5b505050506040513d601f19601f82011682018060405250810190610ff89190611d34565b611037576040517f08c379a000000000000000000000000000000000000000000000000000000000815260040161102e90611dad565b60405180910390fd5b600080600260009054906101000a900473ffffffffffffffffffffffffffffffffffffffff1673ffffffffffffffffffffffffffffffffffffffff1663c4e41b226040518163ffffffff1660e01b8152600401602060405180830381865afa1580156110a7573d6000803e3d6000fd5b505050506040513d601f19601f820116820180604052508101906110cb91906119ba565b905060008114806110de57506000600454145b156110eb57829150611107565b60045481846110fa9190611a16565b6111049190611a87565b91505b82600460008282546111199190611e2d565b9250508190555082600660003373ffffffffffffffffffffffffffffffffffffffff1673ffffffffffffffffffffffffffffffffffffffff168152602001908152602001600020600082825461116f9190611e2d565b92505081905550600260009054906101000a900473ffffffffffffffffffffffffffffffffffffffff1673ffffffffffffffffffffffffffffffffffffffff166340c10f1933846040518363ffffffff1660e01b81526004016111d3929190611cd3565b600060405180830381600087803b1580156111ed57600080fd5b505af1158015611201573d6000803e3d6000fd5b505050503373ffffffffffffffffffffffffffffffffffffffff167f73a19dd210f1a7f902193214c0ee91dd35ee5b4d920cba8d519eca65a7b488ca848460405161124d929190611dcd565b60405180910390a2505050565b6000806000806004546005546005546004546112769190611ab8565b600260009054906101000a900473ffffffffffffffffffffffffffffffffffffffff1673ffffffffffffffffffffffffffffffffffffffff1663c4e41b226040518163ffffffff1660e01b8152600401602060405180830381865afa1580156112e3573d6000803e3d6000fd5b505050506040513d601f19601f8201168201806040525081019061130791906119ba565b935093509350935090919293565b600360009054906101000a900473ffffffffffffffffffffffffffffffffffffffff1673ffffffffffffffffffffffffffffffffffffffff163373ffffffffffffffffffffffffffffffffffffffff16146113a5576040517f08c379a000000000000000000000000000000000000000000000000000000000815260040161139c90611ead565b60405180910390fd5b600081116113e8576040517f08c379a00000000000000000000000000000000000000000000000000000000081526004016113df90611b49565b60405180910390fd5b60006005546004546113fa9190611ab8565b90508082111561143f576040517f08c379a000000000000000000000000000000000000000000000000000000000815260040161143690611ff1565b60405180910390fd5b81600560008282546114519190611e2d565b9250508190555081600760008573ffffffffffffffffffffffffffffffffffffffff1673ffffffffffffffffffffffffffffffffffffffff16815260200190815260200160002060008282546114a79190611e2d565b925050819055508273ffffffffffffffffffffffffffffffffffffffff167f02cdf86641a8af78d65582acc4d2fb6a323586ab230f796aeb1a2967e3858ce7836040516114f491906117cc565b60405180910390a2505050565b6000600760008373ffffffffffffffffffffffffffffffffffffffff1673ffffffffffffffffffffffffffffffffffffffff168152602001908152602001600020549050919050565b6115526115d0565b600073ffffffffffffffffffffffffffffffffffffffff168173ffffffffffffffffffffffffffffffffffffffff16036115c45760006040517f1e4fbdf70000000000000000000000000000000000000000000000000000000081526004016115bb91906118c9565b60405180910390fd5b6115cd81611657565b50565b6115d861171b565b73ffffffffffffffffffffffffffffffffffffffff166115f6610bf9565b73ffffffffffffffffffffffffffffffffffffffff16146116555761161961171b565b6040517f118cdaa700000000000000000000000000000000000000000000000000000000815260040161164c91906118c9565b60405180910390fd5b565b60008060009054906101000a900473ffffffffffffffffffffffffffffffffffffffff169050816000806101000a81548173ffffffffffffffffffffffffffffffffffffffff021916908373ffffffffffffffffffffffffffffffffffffffff1602179055508173ffffffffffffffffffffffffffffffffffffffff168173ffffffffffffffffffffffffffffffffffffffff167f8be0079c531659141344cd1fd0a4f28419497f9722a3daafe3b4186f6b6457e060405160405180910390a35050565b600033905090565b600080fd5b600073ffffffffffffffffffffffffffffffffffffffff82169050919050565b600061175382611728565b9050919050565b61176381611748565b811461176e57600080fd5b50565b6000813590506117808161175a565b92915050565b60006020828403121561179c5761179b611723565b5b60006117aa84828501611771565b91505092915050565b6000819050919050565b6117c6816117b3565b82525050565b60006020820190506117e160008301846117bd565b92915050565b6117f0816117b3565b81146117fb57600080fd5b50565b60008135905061180d816117e7565b92915050565b60006020828403121561182957611828611723565b5b6000611837848285016117fe565b91505092915050565b6000819050919050565b600061186561186061185b84611728565b611840565b611728565b9050919050565b60006118778261184a565b9050919050565b60006118898261186c565b9050919050565b6118998161187e565b82525050565b60006020820190506118b46000830184611890565b92915050565b6118c381611748565b82525050565b60006020820190506118de60008301846118ba565b92915050565b60006118ef8261186c565b9050919050565b6118ff816118e4565b82525050565b600060208201905061191a60008301846118f6565b92915050565b600060808201905061193560008301876117bd565b61194260208301866117bd565b61194f60408301856117bd565b61195c60608301846117bd565b95945050505050565b6000806040838503121561197c5761197b611723565b5b600061198a85828601611771565b925050602061199b858286016117fe565b9150509250929050565b6000815190506119b4816117e7565b92915050565b6000602082840312156119d0576119cf611723565b5b60006119de848285016119a5565b91505092915050565b7f4e487b7100000000000000000000000000000000000000000000000000000000600052601160045260246000fd5b6000611a21826117b3565b9150611a2c836117b3565b9250828202611a3a816117b3565b91508282048414831517611a5157611a506119e7565b5b5092915050565b7f4e487b7100000000000000000000000000000000000000000000000000000000600052601260045260246000fd5b6000611a92826117b3565b9150611a9d836117b3565b925082611aad57611aac611a58565b5b828204905092915050565b6000611ac3826117b3565b9150611ace836117b3565b9250828203905081811115611ae657611ae56119e7565b5b92915050565b600082825260208201905092915050565b7f416d6f756e74206d7573742062652067726561746572207468616e207a65726f600082015250565b6000611b33602083611aec565b9150611b3e82611afd565b602082019050919050565b60006020820190508181036000830152611b6281611b26565b9050919050565b7f496e73756666696369656e7420746f6b656e2062616c616e6365000000000000600082015250565b6000611b9f601a83611aec565b9150611baa82611b69565b602082019050919050565b60006020820190508181036000830152611bce81611b92565b9050919050565b7f4e6f20746f6b656e7320696e2063697263756c6174696f6e0000000000000000600082015250565b6000611c0b601883611aec565b9150611c1682611bd5565b602082019050919050565b60006020820190508181036000830152611c3a81611bfe565b9050919050565b7f496e73756666696369656e742066726565206c6971756964697479202d20667560008201527f6e64656420747261646572732061637469766500000000000000000000000000602082015250565b6000611c9d603383611aec565b9150611ca882611c41565b604082019050919050565b60006020820190508181036000830152611ccc81611c90565b9050919050565b6000604082019050611ce860008301856118ba565b611cf560208301846117bd565b9392505050565b60008115159050919050565b611d1181611cfc565b8114611d1c57600080fd5b50565b600081519050611d2e81611d08565b92915050565b600060208284031215611d4a57611d49611723565b5b6000611d5884828501611d1f565b91505092915050565b7f55534443207472616e73666572206661696c6564000000000000000000000000600082015250565b6000611d97601483611aec565b9150611da282611d61565b602082019050919050565b60006020820190508181036000830152611dc681611d8a565b9050919050565b6000604082019050611de260008301856117bd565b611def60208301846117bd565b9392505050565b6000606082019050611e0b60008301866118ba565b611e1860208301856118ba565b611e2560408301846117bd565b949350505050565b6000611e38826117b3565b9150611e43836117b3565b9250828201905080821115611e5b57611e5a6119e7565b5b92915050565b7f4f6e6c79206368616c6c656e676520636f6e7472616374000000000000000000600082015250565b6000611e97601783611aec565b9150611ea282611e61565b602082019050919050565b60006020820190508181036000830152611ec681611e8a565b9050919050565b7f4e6f20616c6c6f636174696f6e20746f2072656c656173650000000000000000600082015250565b6000611f03601883611aec565b9150611f0e82611ecd565b602082019050919050565b60006020820190508181036000830152611f3281611ef6565b9050919050565b7f496e76616c696420616464726573730000000000000000000000000000000000600082015250565b6000611f6f600f83611aec565b9150611f7a82611f39565b602082019050919050565b60006020820190508181036000830152611f9e81611f62565b9050919050565b7f496e73756666696369656e742066726565206c69717569646974790000000000600082015250565b6000611fdb601b83611aec565b9150611fe682611fa5565b602082019050919050565b6000602082019050818103600083015261200a81611fce565b905091905056fea2646970667358221220b541b834754f99e35d4c2f3a7c7abc52b3e428f07c7167fa566e752074cff1ff64736f6c634300081c0033",
  "linkReferences": {},
  "deployedLinkReferences": {}
}