{
  "_format": "hh-sol-artifact-1",
  "contractName": "ProxyGovernance",
  "sourceName": "contracts/ProxyGovernance.sol",
  "abi": [
    {
      "inputs": [
        {
          "internalType": "address",
          "name": "initialOwner",
          "type": "address"
        },
        {
          "internalType": "address",
          "name": "_glofiTokenAddress",
          "type": "address"
        }
      ],
      "stateMutability": "nonpayable",
      "type": "constructor"
    },
    {
      "inputs": [
        {
          "internalType": "address",
          "name": "owner",
          "type": "address"
        }
      ],
      "name": "OwnableInvalidOwner",
      "type": "error"
    },
    {
      "inputs": [
        {
          "internalType": "address",
          "name": "account",
          "type": "address"
        }
      ],
      "name": "OwnableUnauthorizedAccount",
      "type": "error"
    },
    {
      "anonymous": false,
      "inputs": [
        {
          "indexed": true,
          "internalType": "address",
          "name": "previousOwner",
          "type": "address"
        },
        {
          "indexed": true,
          "internalType": "address",
          "name": "newOwner",
          "type": "address"
        }
      ],
      "name": "OwnershipTransferred",
      "type": "event"
    },
    {
      "anonymous": false,
      "inputs": [
        {
          "indexed": true,
          "internalType": "uint256",
          "name": "proposalId",
          "type": "uint256"
        },
        {
          "indexed": false,
          "internalType": "string",
          "name": "title",
          "type": "string"
        },
        {
          "indexed": false,
          "internalType": "uint256",
          "name": "endTime",
          "type": "uint256"
        }
      ],
      "name": "ProposalCreated",
      "type": "event"
    },
    {
      "anonymous": false,
      "inputs": [
        {
          "indexed": true,
          "internalType": "uint256",
          "name": "proposalId",
          "type": "uint256"
        },
        {
          "indexed": false,
          "internalType": "bool",
          "name": "passed",
          "type": "bool"
        }
      ],
      "name": "ProposalExecuted",
      "type": "event"
    },
    {
      "anonymous": false,
      "inputs": [
        {
          "indexed": true,
          "internalType": "address",
          "name": "investor",
          "type": "address"
        },
        {
          "indexed": true,
          "internalType": "address",
          "name": "agent",
          "type": "address"
        },
        {
          "indexed": false,
          "internalType": "uint256",
          "name": "tokenWeight",
          "type": "uint256"
        }
      ],
      "name": "ProxyRegistered",
      "type": "event"
    },
    {
      "anonymous": false,
      "inputs": [
        {
          "indexed": true,
          "internalType": "address",
          "name": "investor",
          "type": "address"
        },
        {
          "indexed": true,
          "internalType": "address",
          "name": "agent",
          "type": "address"
        }
      ],
      "name": "ProxyRevoked",
      "type": "event"
    },
    {
      "anonymous": false,
      "inputs": [
        {
          "indexed": true,
          "internalType": "uint256",
          "name": "proposalId",
          "type": "uint256"
        },
        {
          "indexed": true,
          "internalType": "address",
          "name": "agent",
          "type": "address"
        },
        {
          "indexed": true,
          "internalType": "address",
          "name": "investor",
          "type": "address"
        },
        {
          "indexed": false,
          "internalType": "bool",
          "name": "support",
          "type": "bool"
        },
        {
          "indexed": false,
          "internalType": "uint256",
          "name": "weight",
          "type": "uint256"
        }
      ],
      "name": "ProxyVoteCast",
      "type": "event"
    },
    {
      "anonymous": false,
      "inputs": [
        {
          "indexed": true,
          "internalType": "uint256",
          "name": "proposalId",
          "type": "uint256"
        },
        {
          "indexed": true,
          "internalType": "address",
          "name": "voter",
          "type": "address"
        },
        {
          "indexed": false,
          "internalType": "bool",
          "name": "support",
          "type": "bool"
        },
        {
          "indexed": false,
          "internalType": "uint256",
          "name": "weight",
          "type": "uint256"
        }
      ],
      "name": "VoteCast",
      "type": "event"
    },
    {
      "inputs": [],
      "name": "MIN_PROPOSAL_THRESHOLD",
      "outputs": [
        {
          "internalType": "uint256",
          "name": "",
          "type": "uint256"
        }
      ],
      "stateMutability": "view",
      "type": "function"
    },
    {
      "inputs": [],
      "name": "VOTING_PERIOD",
      "outputs": [
        {
          "internalType": "uint256",
          "name": "",
          "type": "uint256"
        }
      ],
      "stateMutability": "view",
      "type": "function"
    },
    {
      "inputs": [
        {
          "internalType": "address",
          "name": "",
          "type": "address"
        }
      ],
      "name": "agentToProxy",
      "outputs": [
        {
          "internalType": "address",
          "name": "investor",
          "type": "address"
        },
        {
          "internalType": "address",
          "name": "agent",
          "type": "address"
        },
        {
          "internalType": "uint256",
          "name": "tokenWeight",
          "type": "uint256"
        },
        {
          "internalType": "bool",
          "name": "active",
          "type": "bool"
        },
        {
          "internalType": "uint256",
          "name": "registeredAt",
          "type": "uint256"
        }
      ],
      "stateMutability": "view",
      "type": "function"
    },
    {
      "inputs": [
        {
          "internalType": "string",
          "name": "title",
          "type": "string"
        },
        {
          "internalType": "string",
          "name": "description",
          "type": "string"
        }
      ],
      "name": "createProposal",
      "outputs": [
        {
          "internalType": "uint256",
          "name": "",
          "type": "uint256"
        }
      ],
      "stateMutability": "nonpayable",
      "type": "function"
    },
    {
      "inputs": [
        {
          "internalType": "uint256",
          "name": "proposalId",
          "type": "uint256"
        }
      ],
      "name": "executeProposal",
      "outputs": [],
      "stateMutability": "nonpayable",
      "type": "function"
    },
    {
      "inputs": [
        {
          "internalType": "uint256",
          "name": "proposalId",
          "type": "uint256"
        }
      ],
      "name": "getProposal",
      "outputs": [
        {
          "components": [
            {
              "internalType": "uint256",
              "name": "id",
              "type": "uint256"
            },
            {
              "internalType": "string",
              "name": "title",
              "type": "string"
            },
            {
              "internalType": "string",
              "name": "description",
              "type": "string"
            },
            {
              "internalType": "uint256",
              "name": "forVotes",
              "type": "uint256"
            },
            {
              "internalType": "uint256",
              "name": "againstVotes",
              "type": "uint256"
            },
            {
              "internalType": "uint256",
              "name": "startTime",
              "type": "uint256"
            },
            {
              "internalType": "uint256",
              "name": "endTime",
              "type": "uint256"
            },
            {
              "internalType": "bool",
              "name": "executed",
              "type": "bool"
            },
            {
              "internalType": "bool",
              "name": "passed",
              "type": "bool"
            }
          ],
          "internalType": "struct ProxyGovernance.Proposal",
          "name": "",
          "type": "tuple"
        }
      ],
      "stateMutability": "view",
      "type": "function"
    },
    {
      "inputs": [
        {
          "internalType": "address",
          "name": "agent",
          "type": "address"
        }
      ],
      "name": "getProxyInfo",
      "outputs": [
        {
          "components": [
            {
              "internalType": "address",
              "name": "investor",
              "type": "address"
            },
            {
              "internalType": "address",
              "name": "agent",
              "type": "address"
            },
            {
              "internalType": "uint256",
              "name": "tokenWeight",
              "type": "uint256"
            },
            {
              "internalType": "bool",
              "name": "active",
              "type": "bool"
            },
            {
              "internalType": "uint256",
              "name": "registeredAt",
              "type": "uint256"
            }
          ],
          "internalType": "struct ProxyGovernance.ProxyRelationship",
          "name": "",
          "type": "tuple"
        }
      ],
      "stateMutability": "view",
      "type": "function"
    },
    {
      "inputs": [
        {
          "internalType": "address",
          "name": "voter",
          "type": "address"
        }
      ],
      "name": "getVotingPower",
      "outputs": [
        {
          "internalType": "uint256",
          "name": "direct",
          "type": "uint256"
        },
        {
          "internalType": "uint256",
          "name": "proxy",
          "type": "uint256"
        }
      ],
      "stateMutability": "view",
      "type": "function"
    },
    {
      "inputs": [],
      "name": "glofiToken",
      "outputs": [
        {
          "internalType": "contract GlofiToken",
          "name": "",
          "type": "address"
        }
      ],
      "stateMutability": "view",
      "type": "function"
    },
    {
      "inputs": [
        {
          "internalType": "uint256",
          "name": "",
          "type": "uint256"
        },
        {
          "internalType": "address",
          "name": "",
          "type": "address"
        }
      ],
      "name": "hasVoted",
      "outputs": [
        {
          "internalType": "bool",
          "name": "",
          "type": "bool"
        }
      ],
      "stateMutability": "view",
      "type": "function"
    },
    {
      "inputs": [
        {
          "internalType": "address",
          "name": "",
          "type": "address"
        }
      ],
      "name": "investorToAgent",
      "outputs": [
        {
          "internalType": "address",
          "name": "",
          "type": "address"
        }
      ],
      "stateMutability": "view",
      "type": "function"
    },
    {
      "inputs": [
        {
          "internalType": "uint256",
          "name": "proposalId",
          "type": "uint256"
        }
      ],
      "name": "isProposalActive",
      "outputs": [
        {
          "internalType": "bool",
          "name": "",
          "type": "bool"
        }
      ],
      "stateMutability": "view",
      "type": "function"
    },
    {
      "inputs": [],
      "name": "owner",
      "outputs": [
        {
          "internalType": "address",
          "name": "",
          "type": "address"
        }
      ],
      "stateMutability": "view",
      "type": "function"
    },
    {
      "inputs": [],
      "name": "proposalCount",
      "outputs": [
        {
          "internalType": "uint256",
          "name": "",
          "type": "uint256"
        }
      ],
      "stateMutability": "view",
      "type": "function"
    },
    {
      "inputs": [
        {
          "internalType": "uint256",
          "name": "",
          "type": "uint256"
        }
      ],
      "name": "proposals",
      "outputs": [
        {
          "internalType": "uint256",
          "name": "id",
          "type": "uint256"
        },
        {
          "internalType": "string",
          "name": "title",
          "type": "string"
        },
        {
          "internalType": "string",
          "name": "description",
          "type": "string"
        },
        {
          "internalType": "uint256",
          "name": "forVotes",
          "type": "uint256"
        },
        {
          "internalType": "uint256",
          "name": "againstVotes",
          "type": "uint256"
        },
        {
          "internalType": "uint256",
          "name": "startTime",
          "type": "uint256"
        },
        {
          "internalType": "uint256",
          "name": "endTime",
          "type": "uint256"
        },
        {
          "internalType": "bool",
          "name": "executed",
          "type": "bool"
        },
        {
          "internalType": "bool",
          "name": "passed",
          "type": "bool"
        }
      ],
      "stateMutability": "view",
      "type": "function"
    },
    {
      "inputs": [
        {
          "internalType": "address",
          "name": "investor",
          "type": "address"
        },
        {
          "internalType": "address",
          "name": "agent",
          "type": "address"
        },
        {
          "internalType": "uint256",
          "name": "tokenWeight",
          "type": "uint256"
        }
      ],
      "name": "registerProxy",
      "outputs": [],
      "stateMutability": "nonpayable",
      "type": "function"
    },
    {
      "inputs": [],
      "name": "renounceOwnership",
      "outputs": [],
      "stateMutability": "nonpayable",
      "type": "function"
    },
    {
      "inputs": [
        {
          "internalType": "address",
          "name": "investor",
          "type": "address"
        }
      ],
      "name": "revokeProxy",
      "outputs": [],
      "stateMutability": "nonpayable",
      "type": "function"
    },
    {
      "inputs": [
        {
          "internalType": "address",
          "name": "newOwner",
          "type": "address"
        }
      ],
      "name": "transferOwnership",
      "outputs": [],
      "stateMutability": "nonpayable",
      "type": "function"
    },
    {
      "inputs": [
        {
          "internalType": "uint256",
          "name": "proposalId",
          "type": "uint256"
        },
        {
          "internalType": "bool",
          "name": "support",
          "type": "bool"
        }
      ],
      "name": "vote",
      "outputs": [],
      "stateMutability": "nonpayable",
      "type": "function"
    },
    {
      "inputs": [
        {
          "internalType": "uint256",
          "name": "proposalId",
          "type": "uint256"
        },
        {
          "internalType": "bool",
          "name": "support",
          "type": "bool"
        }
      ],
      "name": "voteAsProxy",
      "outputs": [],
      "stateMutability": "nonpayable",
      "type": "function"
    },
    {
      "inputs": [
        {
          "internalType": "uint256",
          "name": "",
          "type": "uint256"
        },
        {
          "internalType": "address",
          "name": "",
          "type": "address"
        }
      ],
      "name": "voteDirection",
      "outputs": [
        {
          "internalType": "bool",
          "name": "",
          "type": "bool"
        }
      ],
      "stateMutability": "view",
      "type": "function"
    }
  ],
  "bytecode": "0x608060405234801561001057600080fd5b506040516136c23803806136c283398181016040528101906100329190610224565b81600073ffffffffffffffffffffffffffffffffffffffff168173ffffffffffffffffffffffffffffffffffffffff16036100a55760006040517f1e4fbdf700000000000000000000000000000000000000000000000000000000815260040161009c9190610273565b60405180910390fd5b6100b4816100fd60201b60201c565b5080600160006101000a81548173ffffffffffffffffffffffffffffffffffffffff021916908373ffffffffffffffffffffffffffffffffffffffff160217905550505061028e565b60008060009054906101000a900473ffffffffffffffffffffffffffffffffffffffff169050816000806101000a81548173ffffffffffffffffffffffffffffffffffffffff021916908373ffffffffffffffffffffffffffffffffffffffff1602179055508173ffffffffffffffffffffffffffffffffffffffff168173ffffffffffffffffffffffffffffffffffffffff167f8be0079c531659141344cd1fd0a4f28419497f9722a3daafe3b4186f6b6457e060405160405180910390a35050565b600080fd5b600073ffffffffffffffffffffffffffffffffffffffff82169050919050565b60006101f1826101c6565b9050919050565b610201816101e6565b811461020c57600080fd5b50565b60008151905061021e816101f8565b92915050565b6000806040838503121561023b5761023a6101c1565b5b60006102498582860161020f565b925050602061025a8582860161020f565b9150509250929050565b61026d816101e6565b82525050565b60006020820190506102886000830184610264565b92915050565b6134258061029d6000396000f3fe608060405234801561001057600080fd5b50600436106101425760003560e01c80639c25e730116100b8578063c68285cf1161007c578063c68285cf146103be578063c7f758a8146103da578063c89052251461040a578063c9d27afe14610426578063da35c66414610442578063f2fde38b1461046057610142565b80639c25e73014610305578063ac51ae3b14610335578063b1610d7e14610353578063b308600014610371578063bb4d44361461038d57610142565b8063438596321161010a578063438596321461022b57806365e481e21461025b578063715018a61461028b578063791f5d23146102955780638da5cb5b146102b35780638e2e3aa0146102d157610142565b8063013cf08b146101475780630d61b5191461017f57806312c0694d1461019b578063164b3d2f146101cb5780633aebb682146101fb575b600080fd5b610161600480360381019061015c9190612204565b61047c565b604051610176999897969594939291906122eb565b60405180910390f35b61019960048036038101906101949190612204565b6105f4565b005b6101b560048036038101906101b091906123e4565b610734565b6040516101c29190612420565b60405180910390f35b6101e560048036038101906101e09190612204565b610767565b6040516101f2919061243b565b60405180910390f35b610215600480360381019061021091906123e4565b610789565b60405161022291906124eb565b60405180910390f35b61024560048036038101906102409190612506565b6108bd565b604051610252919061243b565b60405180910390f35b610275600480360381019061027091906125ab565b6108ec565b604051610282919061262c565b60405180910390f35b610293610bd7565b005b61029d610beb565b6040516102aa919061262c565b60405180910390f35b6102bb610bf8565b6040516102c89190612420565b60405180910390f35b6102eb60048036038101906102e691906123e4565b610c21565b6040516102fc959493929190612647565b60405180910390f35b61031f600480360381019061031a9190612506565b610ca4565b60405161032c919061243b565b60405180910390f35b61033d610cd3565b60405161034a91906126f9565b60405180910390f35b61035b610cf9565b604051610368919061262c565b60405180910390f35b61038b60048036038101906103869190612740565b610d00565b005b6103a760048036038101906103a291906123e4565b611105565b6040516103b5929190612780565b60405180910390f35b6103d860048036038101906103d391906127a9565b6112ed565b005b6103f460048036038101906103ef9190612204565b611721565b6040516104019190612912565b60405180910390f35b610424600480360381019061041f91906123e4565b6118db565b005b610440600480360381019061043b9190612740565b611bf0565b005b61044a611f38565b604051610457919061262c565b60405180910390f35b61047a600480360381019061047591906123e4565b611f3e565b005b60036020528060005260406000206000915090508060000154908060010180546104a590612963565b80601f01602080910402602001604051908101604052809291908181526020018280546104d190612963565b801561051e5780601f106104f35761010080835404028352916020019161051e565b820191906000526020600020905b81548152906001019060200180831161050157829003601f168201915b50505050509080600201805461053390612963565b80601f016020809104026020016040519081016040528092919081815260200182805461055f90612963565b80156105ac5780601f10610581576101008083540402835291602001916105ac565b820191906000526020600020905b81548152906001019060200180831161058f57829003601f168201915b5050505050908060030154908060040154908060050154908060060154908060070160009054906101000a900460ff16908060070160019054906101000a900460ff16905089565b60006003600083815260200190815260200160002090508060060154421015610652576040517f08c379a0000000000000000000000000000000000000000000000000000000008152600401610649906129e0565b60405180910390fd5b8060070160009054906101000a900460ff16156106a4576040517f08c379a000000000000000000000000000000000000000000000000000000000815260040161069b90612a4c565b60405180910390fd5b60018160070160006101000a81548160ff02191690831515021790555080600401548160030154118160070160016101000a81548160ff021916908315150217905550817f948f4a9cd986f1118c3fbd459f7a22b23c0693e1ca3ef06a6a8be5aa7d39cc038260070160019054906101000a900460ff16604051610728919061243b565b60405180910390a25050565b60076020528060005260406000206000915054906101000a900473ffffffffffffffffffffffffffffffffffffffff1681565b6000600360008381526020019081526020016000206006015442109050919050565b610791612117565b600660008373ffffffffffffffffffffffffffffffffffffffff1673ffffffffffffffffffffffffffffffffffffffff1681526020019081526020016000206040518060a00160405290816000820160009054906101000a900473ffffffffffffffffffffffffffffffffffffffff1673ffffffffffffffffffffffffffffffffffffffff1673ffffffffffffffffffffffffffffffffffffffff1681526020016001820160009054906101000a900473ffffffffffffffffffffffffffffffffffffffff1673ffffffffffffffffffffffffffffffffffffffff1673ffffffffffffffffffffffffffffffffffffffff168152602001600282015481526020016003820160009054906101000a900460ff161515151581526020016004820154815250509050919050565b60046020528160005260406000206020528060005260406000206000915091509054906101000a900460ff1681565b6000683635c9adc5dea00000600160009054906101000a900473ffffffffffffffffffffffffffffffffffffffff1673ffffffffffffffffffffffffffffffffffffffff166370a08231336040518263ffffffff1660e01b81526004016109539190612420565b602060405180830381865afa158015610970573d6000803e3d6000fd5b505050506040513d601f19601f820116820180604052508101906109949190612a81565b10156109d5576040517f08c379a00000000000000000000000000000000000000000000000000000000081526004016109cc90612afa565b60405180910390fd5b60006002600081546109e690612b49565b919050819055905060405180610120016040528082815260200187878080601f016020809104026020016040519081016040528093929190818152602001838380828437600081840152601f19601f82011690508083019250505050505050815260200185858080601f016020809104026020016040519081016040528093929190818152602001838380828437600081840152601f19601f820116905080830192505050505050508152602001600081526020016000815260200142815260200162093a8042610ab79190612b91565b81526020016000151581526020016000151581525060036000838152602001908152602001600020600082015181600001556020820151816001019081610afe9190612d96565b506040820151816002019081610b149190612d96565b50606082015181600301556080820151816004015560a0820151816005015560c0820151816006015560e08201518160070160006101000a81548160ff0219169083151502179055506101008201518160070160016101000a81548160ff021916908315150217905550905050807ff5dc0da9afa6d080780a49fd8c680f03d2ddf3c067cd6d0c85360c096644d2d3878762093a8042610bb49190612b91565b604051610bc393929190612ea4565b60405180910390a280915050949350505050565b610bdf611fc4565b610be9600061204b565b565b683635c9adc5dea0000081565b60008060009054906101000a900473ffffffffffffffffffffffffffffffffffffffff16905090565b60066020528060005260406000206000915090508060000160009054906101000a900473ffffffffffffffffffffffffffffffffffffffff16908060010160009054906101000a900473ffffffffffffffffffffffffffffffffffffffff16908060020154908060030160009054906101000a900460ff16908060040154905085565b60056020528160005260406000206020528060005260406000206000915091509054906101000a900460ff1681565b600160009054906101000a900473ffffffffffffffffffffffffffffffffffffffff1681565b62093a8081565b6000600660003373ffffffffffffffffffffffffffffffffffffffff1673ffffffffffffffffffffffffffffffffffffffff1681526020019081526020016000206040518060a00160405290816000820160009054906101000a900473ffffffffffffffffffffffffffffffffffffffff1673ffffffffffffffffffffffffffffffffffffffff1673ffffffffffffffffffffffffffffffffffffffff1681526020016001820160009054906101000a900473ffffffffffffffffffffffffffffffffffffffff1673ffffffffffffffffffffffffffffffffffffffff1673ffffffffffffffffffffffffffffffffffffffff168152602001600282015481526020016003820160009054906101000a900460ff1615151515815260200160048201548152505090508060600151610e6d576040517f08c379a0000000000000000000000000000000000000000000000000000000008152600401610e6490612f22565b60405180910390fd5b600060036000858152602001908152602001600020905080600601544210610eca576040517f08c379a0000000000000000000000000000000000000000000000000000000008152600401610ec190612f8e565b60405180910390fd5b600460008581526020019081526020016000206000836000015173ffffffffffffffffffffffffffffffffffffffff1673ffffffffffffffffffffffffffffffffffffffff16815260200190815260200160002060009054906101000a900460ff1615610f6c576040517f08c379a0000000000000000000000000000000000000000000000000000000008152600401610f6390612ffa565b60405180910390fd5b6001600460008681526020019081526020016000206000846000015173ffffffffffffffffffffffffffffffffffffffff1673ffffffffffffffffffffffffffffffffffffffff16815260200190815260200160002060006101000a81548160ff02191690831515021790555082600560008681526020019081526020016000206000846000015173ffffffffffffffffffffffffffffffffffffffff1673ffffffffffffffffffffffffffffffffffffffff16815260200190815260200160002060006101000a81548160ff021916908315150217905550821561106f5781604001518160030160008282546110639190612b91565b9250508190555061108f565b81604001518160040160008282546110879190612b91565b925050819055505b816000015173ffffffffffffffffffffffffffffffffffffffff163373ffffffffffffffffffffffffffffffffffffffff16857f26d4fd27918a1c3233edcf5e39cf222d6345a779ee881b99164bf2a1f3f06b2c8686604001516040516110f792919061301a565b60405180910390a450505050565b600080600160009054906101000a900473ffffffffffffffffffffffffffffffffffffffff1673ffffffffffffffffffffffffffffffffffffffff166370a08231846040518263ffffffff1660e01b81526004016111639190612420565b602060405180830381865afa158015611180573d6000803e3d6000fd5b505050506040513d601f19601f820116820180604052508101906111a49190612a81565b91506000600660008573ffffffffffffffffffffffffffffffffffffffff1673ffffffffffffffffffffffffffffffffffffffff1681526020019081526020016000206040518060a00160405290816000820160009054906101000a900473ffffffffffffffffffffffffffffffffffffffff1673ffffffffffffffffffffffffffffffffffffffff1673ffffffffffffffffffffffffffffffffffffffff1681526020016001820160009054906101000a900473ffffffffffffffffffffffffffffffffffffffff1673ffffffffffffffffffffffffffffffffffffffff1673ffffffffffffffffffffffffffffffffffffffff168152602001600282015481526020016003820160009054906101000a900460ff16151515158152602001600482015481525050905080606001516112df5760006112e5565b80604001515b915050915091565b6112f5611fc4565b600073ffffffffffffffffffffffffffffffffffffffff168373ffffffffffffffffffffffffffffffffffffffff161415801561135f5750600073ffffffffffffffffffffffffffffffffffffffff168273ffffffffffffffffffffffffffffffffffffffff1614155b61139e576040517f08c379a00000000000000000000000000000000000000000000000000000000081526004016113959061308f565b60405180910390fd5b8173ffffffffffffffffffffffffffffffffffffffff168373ffffffffffffffffffffffffffffffffffffffff160361140c576040517f08c379a000000000000000000000000000000000000000000000000000000000815260040161140390613121565b60405180910390fd5b600660008373ffffffffffffffffffffffffffffffffffffffff1673ffffffffffffffffffffffffffffffffffffffff16815260200190815260200160002060030160009054906101000a900460ff161561149c576040517f08c379a00000000000000000000000000000000000000000000000000000000081526004016114939061318d565b60405180910390fd5b600081116114df576040517f08c379a00000000000000000000000000000000000000000000000000000000081526004016114d69061321f565b60405180910390fd5b6040518060a001604052808473ffffffffffffffffffffffffffffffffffffffff1681526020018373ffffffffffffffffffffffffffffffffffffffff16815260200182815260200160011515815260200142815250600660008473ffffffffffffffffffffffffffffffffffffffff1673ffffffffffffffffffffffffffffffffffffffff16815260200190815260200160002060008201518160000160006101000a81548173ffffffffffffffffffffffffffffffffffffffff021916908373ffffffffffffffffffffffffffffffffffffffff16021790555060208201518160010160006101000a81548173ffffffffffffffffffffffffffffffffffffffff021916908373ffffffffffffffffffffffffffffffffffffffff1602179055506040820151816002015560608201518160030160006101000a81548160ff0219169083151502179055506080820151816004015590505081600760008573ffffffffffffffffffffffffffffffffffffffff1673ffffffffffffffffffffffffffffffffffffffff16815260200190815260200160002060006101000a81548173ffffffffffffffffffffffffffffffffffffffff021916908373ffffffffffffffffffffffffffffffffffffffff1602179055508173ffffffffffffffffffffffffffffffffffffffff168373ffffffffffffffffffffffffffffffffffffffff167fb57b5f971f9a8d2501b557b69a1ac844d7f4df372033ddc6065931b0e90bd12083604051611714919061262c565b60405180910390a3505050565b611729612174565b60036000838152602001908152602001600020604051806101200160405290816000820154815260200160018201805461176290612963565b80601f016020809104026020016040519081016040528092919081815260200182805461178e90612963565b80156117db5780601f106117b0576101008083540402835291602001916117db565b820191906000526020600020905b8154815290600101906020018083116117be57829003601f168201915b505050505081526020016002820180546117f490612963565b80601f016020809104026020016040519081016040528092919081815260200182805461182090612963565b801561186d5780601f106118425761010080835404028352916020019161186d565b820191906000526020600020905b81548152906001019060200180831161185057829003601f168201915b50505050508152602001600382015481526020016004820154815260200160058201548152602001600682015481526020016007820160009054906101000a900460ff161515151581526020016007820160019054906101000a900460ff1615151515815250509050919050565b6118e3610bf8565b73ffffffffffffffffffffffffffffffffffffffff163373ffffffffffffffffffffffffffffffffffffffff1614806119a65750600760008273ffffffffffffffffffffffffffffffffffffffff1673ffffffffffffffffffffffffffffffffffffffff16815260200190815260200160002060009054906101000a900473ffffffffffffffffffffffffffffffffffffffff1673ffffffffffffffffffffffffffffffffffffffff163373ffffffffffffffffffffffffffffffffffffffff16145b6119e5576040517f08c379a00000000000000000000000000000000000000000000000000000000081526004016119dc9061328b565b60405180910390fd5b6000600760008373ffffffffffffffffffffffffffffffffffffffff1673ffffffffffffffffffffffffffffffffffffffff16815260200190815260200160002060009054906101000a900473ffffffffffffffffffffffffffffffffffffffff169050600073ffffffffffffffffffffffffffffffffffffffff168173ffffffffffffffffffffffffffffffffffffffff1603611ab8576040517f08c379a0000000000000000000000000000000000000000000000000000000008152600401611aaf906132f7565b60405180910390fd5b6000600660008373ffffffffffffffffffffffffffffffffffffffff1673ffffffffffffffffffffffffffffffffffffffff16815260200190815260200160002060030160006101000a81548160ff0219169083151502179055506000600760008473ffffffffffffffffffffffffffffffffffffffff1673ffffffffffffffffffffffffffffffffffffffff16815260200190815260200160002060006101000a81548173ffffffffffffffffffffffffffffffffffffffff021916908373ffffffffffffffffffffffffffffffffffffffff1602179055508073ffffffffffffffffffffffffffffffffffffffff168273ffffffffffffffffffffffffffffffffffffffff167fc6ec74cf8aa115402b568f66f56c8f47683b93cb5d9cbaff843af5f47c92161060405160405180910390a35050565b600060036000848152602001908152602001600020905080600601544210611c4d576040517f08c379a0000000000000000000000000000000000000000000000000000000008152600401611c4490612f8e565b60405180910390fd5b6004600084815260200190815260200160002060003373ffffffffffffffffffffffffffffffffffffffff1673ffffffffffffffffffffffffffffffffffffffff16815260200190815260200160002060009054906101000a900460ff1615611ceb576040517f08c379a0000000000000000000000000000000000000000000000000000000008152600401611ce290613363565b60405180910390fd5b6000600160009054906101000a900473ffffffffffffffffffffffffffffffffffffffff1673ffffffffffffffffffffffffffffffffffffffff166370a08231336040518263ffffffff1660e01b8152600401611d489190612420565b602060405180830381865afa158015611d65573d6000803e3d6000fd5b505050506040513d601f19601f82011682018060405250810190611d899190612a81565b905060008111611dce576040517f08c379a0000000000000000000000000000000000000000000000000000000008152600401611dc5906133cf565b60405180910390fd5b60016004600086815260200190815260200160002060003373ffffffffffffffffffffffffffffffffffffffff1673ffffffffffffffffffffffffffffffffffffffff16815260200190815260200160002060006101000a81548160ff021916908315150217905550826005600086815260200190815260200160002060003373ffffffffffffffffffffffffffffffffffffffff1673ffffffffffffffffffffffffffffffffffffffff16815260200190815260200160002060006101000a81548160ff0219169083151502179055508215611ec55780826003016000828254611eb99190612b91565b92505081905550611ee1565b80826004016000828254611ed99190612b91565b925050819055505b3373ffffffffffffffffffffffffffffffffffffffff16847fcbdf6214089cba887ecbf35a0b6a734589959c9763342c756bb2a80ca2bc9f6e8584604051611f2a92919061301a565b60405180910390a350505050565b60025481565b611f46611fc4565b600073ffffffffffffffffffffffffffffffffffffffff168173ffffffffffffffffffffffffffffffffffffffff1603611fb85760006040517f1e4fbdf7000000000000000000000000000000000000000000000000000000008152600401611faf9190612420565b60405180910390fd5b611fc18161204b565b50565b611fcc61210f565b73ffffffffffffffffffffffffffffffffffffffff16611fea610bf8565b73ffffffffffffffffffffffffffffffffffffffff16146120495761200d61210f565b6040517f118cdaa70000000000000000000000000000000000000000000000000000000081526004016120409190612420565b60405180910390fd5b565b60008060009054906101000a900473ffffffffffffffffffffffffffffffffffffffff169050816000806101000a81548173ffffffffffffffffffffffffffffffffffffffff021916908373ffffffffffffffffffffffffffffffffffffffff1602179055508173ffffffffffffffffffffffffffffffffffffffff168173ffffffffffffffffffffffffffffffffffffffff167f8be0079c531659141344cd1fd0a4f28419497f9722a3daafe3b4186f6b6457e060405160405180910390a35050565b600033905090565b6040518060a00160405280600073ffffffffffffffffffffffffffffffffffffffff168152602001600073ffffffffffffffffffffffffffffffffffffffff16815260200160008152602001600015158152602001600081525090565b604051806101200160405280600081526020016060815260200160608152602001600081526020016000815260200160008152602001600081526020016000151581526020016000151581525090565b600080fd5b600080fd5b6000819050919050565b6121e1816121ce565b81146121ec57600080fd5b50565b6000813590506121fe816121d8565b92915050565b60006020828403121561221a576122196121c4565b5b6000612228848285016121ef565b91505092915050565b61223a816121ce565b82525050565b600081519050919050565b600082825260208201905092915050565b60005b8381101561227a57808201518184015260208101905061225f565b60008484015250505050565b6000601f19601f8301169050919050565b60006122a282612240565b6122ac818561224b565b93506122bc81856020860161225c565b6122c581612286565b840191505092915050565b60008115159050919050565b6122e5816122d0565b82525050565b600061012082019050612301600083018c612231565b8181036020830152612313818b612297565b90508181036040830152612327818a612297565b90506123366060830189612231565b6123436080830188612231565b61235060a0830187612231565b61235d60c0830186612231565b61236a60e08301856122dc565b6123786101008301846122dc565b9a9950505050505050505050565b600073ffffffffffffffffffffffffffffffffffffffff82169050919050565b60006123b182612386565b9050919050565b6123c1816123a6565b81146123cc57600080fd5b50565b6000813590506123de816123b8565b92915050565b6000602082840312156123fa576123f96121c4565b5b6000612408848285016123cf565b91505092915050565b61241a816123a6565b82525050565b60006020820190506124356000830184612411565b92915050565b600060208201905061245060008301846122dc565b92915050565b61245f816123a6565b82525050565b61246e816121ce565b82525050565b61247d816122d0565b82525050565b60a0820160008201516124996000850182612456565b5060208201516124ac6020850182612456565b5060408201516124bf6040850182612465565b5060608201516124d26060850182612474565b5060808201516124e56080850182612465565b50505050565b600060a0820190506125006000830184612483565b92915050565b6000806040838503121561251d5761251c6121c4565b5b600061252b858286016121ef565b925050602061253c858286016123cf565b9150509250929050565b600080fd5b600080fd5b600080fd5b60008083601f84011261256b5761256a612546565b5b8235905067ffffffffffffffff8111156125885761258761254b565b5b6020830191508360018202830111156125a4576125a3612550565b5b9250929050565b600080600080604085870312156125c5576125c46121c4565b5b600085013567ffffffffffffffff8111156125e3576125e26121c9565b5b6125ef87828801612555565b9450945050602085013567ffffffffffffffff811115612612576126116121c9565b5b61261e87828801612555565b925092505092959194509250565b60006020820190506126416000830184612231565b92915050565b600060a08201905061265c6000830188612411565b6126696020830187612411565b6126766040830186612231565b61268360608301856122dc565b6126906080830184612231565b9695505050505050565b6000819050919050565b60006126bf6126ba6126b584612386565b61269a565b612386565b9050919050565b60006126d1826126a4565b9050919050565b60006126e3826126c6565b9050919050565b6126f3816126d8565b82525050565b600060208201905061270e60008301846126ea565b92915050565b61271d816122d0565b811461272857600080fd5b50565b60008135905061273a81612714565b92915050565b60008060408385031215612757576127566121c4565b5b6000612765858286016121ef565b92505060206127768582860161272b565b9150509250929050565b60006040820190506127956000830185612231565b6127a26020830184612231565b9392505050565b6000806000606084860312156127c2576127c16121c4565b5b60006127d0868287016123cf565b93505060206127e1868287016123cf565b92505060406127f2868287016121ef565b9150509250925092565b600082825260208201905092915050565b600061281882612240565b61282281856127fc565b935061283281856020860161225c565b61283b81612286565b840191505092915050565b60006101208301600083015161285f6000860182612465565b5060208301518482036020860152612877828261280d565b91505060408301518482036040860152612891828261280d565b91505060608301516128a66060860182612465565b5060808301516128b96080860182612465565b5060a08301516128cc60a0860182612465565b5060c08301516128df60c0860182612465565b5060e08301516128f260e0860182612474565b50610100830151612907610100860182612474565b508091505092915050565b6000602082019050818103600083015261292c8184612846565b905092915050565b7f4e487b7100000000000000000000000000000000000000000000000000000000600052602260045260246000fd5b6000600282049050600182168061297b57607f821691505b60208210810361298e5761298d612934565b5b50919050565b7f566f74696e67207374696c6c2061637469766500000000000000000000000000600082015250565b60006129ca60138361224b565b91506129d582612994565b602082019050919050565b600060208201905081810360008301526129f9816129bd565b9050919050565b7f416c726561647920657865637574656400000000000000000000000000000000600082015250565b6000612a3660108361224b565b9150612a4182612a00565b602082019050919050565b60006020820190508181036000830152612a6581612a29565b9050919050565b600081519050612a7b816121d8565b92915050565b600060208284031215612a9757612a966121c4565b5b6000612aa584828501612a6c565b91505092915050565b7f496e73756666696369656e7420746f6b656e7320746f2070726f706f73650000600082015250565b6000612ae4601e8361224b565b9150612aef82612aae565b602082019050919050565b60006020820190508181036000830152612b1381612ad7565b9050919050565b7f4e487b7100000000000000000000000000000000000000000000000000000000600052601160045260246000fd5b6000612b54826121ce565b91507fffffffffffffffffffffffffffffffffffffffffffffffffffffffffffffffff8203612b8657612b85612b1a565b5b600182019050919050565b6000612b9c826121ce565b9150612ba7836121ce565b9250828201905080821115612bbf57612bbe612b1a565b5b92915050565b7f4e487b7100000000000000000000000000000000000000000000000000000000600052604160045260246000fd5b60008190508160005260206000209050919050565b60006020601f8301049050919050565b600082821b905092915050565b600060088302612c567fffffffffffffffffffffffffffffffffffffffffffffffffffffffffffffffff82612c19565b612c608683612c19565b95508019841693508086168417925050509392505050565b6000612c93612c8e612c89846121ce565b61269a565b6121ce565b9050919050565b6000819050919050565b612cad83612c78565b612cc1612cb982612c9a565b848454612c26565b825550505050565b600090565b612cd6612cc9565b612ce1818484612ca4565b505050565b5b81811015612d0557612cfa600082612cce565b600181019050612ce7565b5050565b601f821115612d4a57612d1b81612bf4565b612d2484612c09565b81016020851015612d33578190505b612d47612d3f85612c09565b830182612ce6565b50505b505050565b600082821c905092915050565b6000612d6d60001984600802612d4f565b1980831691505092915050565b6000612d868383612d5c565b9150826002028217905092915050565b612d9f82612240565b67ffffffffffffffff811115612db857612db7612bc5565b5b612dc28254612963565b612dcd828285612d09565b600060209050601f831160018114612e005760008415612dee578287015190505b612df88582612d7a565b865550612e60565b601f198416612e0e86612bf4565b60005b82811015612e3657848901518255600182019150602085019450602081019050612e11565b86831015612e535784890151612e4f601f891682612d5c565b8355505b6001600288020188555050505b505050505050565b82818337600083830152505050565b6000612e83838561224b565b9350612e90838584612e68565b612e9983612286565b840190509392505050565b60006040820190508181036000830152612ebf818587612e77565b9050612ece6020830184612231565b949350505050565b7f4e6f206163746976652070726f78792072656c6174696f6e7368697000000000600082015250565b6000612f0c601c8361224b565b9150612f1782612ed6565b602082019050919050565b60006020820190508181036000830152612f3b81612eff565b9050919050565b7f566f74696e6720706572696f6420656e64656400000000000000000000000000600082015250565b6000612f7860138361224b565b9150612f8382612f42565b602082019050919050565b60006020820190508181036000830152612fa781612f6b565b9050919050565b7f496e766573746f7220616c726561647920766f74656400000000000000000000600082015250565b6000612fe460168361224b565b9150612fef82612fae565b602082019050919050565b6000602082019050818103600083015261301381612fd7565b9050919050565b600060408201905061302f60008301856122dc565b61303c6020830184612231565b9392505050565b7f496e76616c696420616464726573736573000000000000000000000000000000600082015250565b600061307960118361224b565b915061308482613043565b602082019050919050565b600060208201905081810360008301526130a88161306c565b9050919050565b7f496e766573746f722063616e6e6f74206265207468656972206f776e2061676560008201527f6e74000000000000000000000000000000000000000000000000000000000000602082015250565b600061310b60228361224b565b9150613116826130af565b604082019050919050565b6000602082019050818103600083015261313a816130fe565b9050919050565b7f4167656e7420616c726561647920726567697374657265640000000000000000600082015250565b600061317760188361224b565b915061318282613141565b602082019050919050565b600060208201905081810360008301526131a68161316a565b9050919050565b7f546f6b656e20776569676874206d75737420626520677265617465722074686160008201527f6e207a65726f0000000000000000000000000000000000000000000000000000602082015250565b600061320960268361224b565b9150613214826131ad565b604082019050919050565b60006020820190508181036000830152613238816131fc565b9050919050565b7f4e6f7420617574686f72697a6564000000000000000000000000000000000000600082015250565b6000613275600e8361224b565b91506132808261323f565b602082019050919050565b600060208201905081810360008301526132a481613268565b9050919050565b7f4e6f2070726f7879207265676973746572656400000000000000000000000000600082015250565b60006132e160138361224b565b91506132ec826132ab565b602082019050919050565b60006020820190508181036000830152613310816132d4565b9050919050565b7f416c726561647920766f74656400000000000000000000000000000000000000600082015250565b600061334d600d8361224b565b915061335882613317565b602082019050919050565b6000602082019050818103600083015261337c81613340565b9050919050565b7f4e6f20766f74696e6720706f7765720000000000000000000000000000000000600082015250565b60006133b9600f8361224b565b91506133c482613383565b602082019050919050565b600060208201905081810360008301526133e8816133ac565b905091905056fea26469706673582212200cbba09b39d517dd2d7dd7ca70e918ff45e4dc921b9dc6e7e579f2605baca09564736f6c634300081c0033",
  "linkReferences": {},
  "deployedLinkReferences": {}
}